{
  "contractName": "SeventFinance",
  "abi": [
    {
      "inputs": [
        {
          "internalType": "address",
          "name": "_implementation",
          "type": "address"
        }
      ],
      "stateMutability": "nonpayable",
      "type": "constructor"
    },
    {
      "anonymous": false,
      "inputs": [
        {
          "indexed": true,
          "internalType": "address",
          "name": "owner",
          "type": "address"
        },
        {
          "indexed": true,
          "internalType": "address",
          "name": "spender",
          "type": "address"
        },
        {
          "indexed": false,
          "internalType": "uint256",
          "name": "value",
          "type": "uint256"
        }
      ],
      "name": "Approval",
      "type": "event"
    },
    {
      "anonymous": false,
      "inputs": [
        {
          "indexed": true,
          "internalType": "address",
          "name": "previousOwner",
          "type": "address"
        },
        {
          "indexed": true,
          "internalType": "address",
          "name": "newOwner",
          "type": "address"
        }
      ],
      "name": "OwnershipTransferred",
      "type": "event"
    },
    {
      "anonymous": false,
      "inputs": [
        {
          "indexed": false,
          "internalType": "address",
          "name": "account",
          "type": "address"
        }
      ],
      "name": "Paused",
      "type": "event"
    },
    {
      "anonymous": false,
      "inputs": [
        {
          "indexed": true,
          "internalType": "address",
          "name": "burner",
          "type": "address"
        },
        {
          "indexed": false,
          "internalType": "uint256",
          "name": "amount",
          "type": "uint256"
        }
      ],
      "name": "TokenBurned",
      "type": "event"
    },
    {
      "anonymous": false,
      "inputs": [
        {
          "indexed": true,
          "internalType": "address",
          "name": "minter",
          "type": "address"
        },
        {
          "indexed": false,
          "internalType": "uint256",
          "name": "amount",
          "type": "uint256"
        }
      ],
      "name": "TokenMinted",
      "type": "event"
    },
    {
      "anonymous": false,
      "inputs": [
        {
          "indexed": true,
          "internalType": "address",
          "name": "from",
          "type": "address"
        },
        {
          "indexed": true,
          "internalType": "address",
          "name": "to",
          "type": "address"
        },
        {
          "indexed": false,
          "internalType": "uint256",
          "name": "value",
          "type": "uint256"
        }
      ],
      "name": "Transfer",
      "type": "event"
    },
    {
      "anonymous": false,
      "inputs": [
        {
          "indexed": false,
          "internalType": "address",
          "name": "account",
          "type": "address"
        }
      ],
      "name": "Unpaused",
      "type": "event"
    },
    {
      "stateMutability": "payable",
      "type": "fallback"
    },
    {
      "inputs": [],
      "name": "INITIAL_SUPPLY",
      "outputs": [
        {
          "internalType": "uint256",
          "name": "",
          "type": "uint256"
        }
      ],
      "stateMutability": "view",
      "type": "function"
    },
    {
      "inputs": [],
      "name": "MINT_AMOUNT",
      "outputs": [
        {
          "internalType": "uint256",
          "name": "",
          "type": "uint256"
        }
      ],
      "stateMutability": "view",
      "type": "function"
    },
    {
      "inputs": [
        {
          "internalType": "address",
          "name": "owner",
          "type": "address"
        },
        {
          "internalType": "address",
          "name": "spender",
          "type": "address"
        }
      ],
      "name": "allowance",
      "outputs": [
        {
          "internalType": "uint256",
          "name": "",
          "type": "uint256"
        }
      ],
      "stateMutability": "view",
      "type": "function"
    },
    {
      "inputs": [
        {
          "internalType": "address",
          "name": "spender",
          "type": "address"
        },
        {
          "internalType": "uint256",
          "name": "amount",
          "type": "uint256"
        }
      ],
      "name": "approve",
      "outputs": [
        {
          "internalType": "bool",
          "name": "",
          "type": "bool"
        }
      ],
      "stateMutability": "nonpayable",
      "type": "function"
    },
    {
      "inputs": [
        {
          "internalType": "address",
          "name": "account",
          "type": "address"
        }
      ],
      "name": "balanceOf",
      "outputs": [
        {
          "internalType": "uint256",
          "name": "",
          "type": "uint256"
        }
      ],
      "stateMutability": "view",
      "type": "function"
    },
    {
      "inputs": [],
      "name": "decimals",
      "outputs": [
        {
          "internalType": "uint8",
          "name": "",
          "type": "uint8"
        }
      ],
      "stateMutability": "view",
      "type": "function"
    },
    {
      "inputs": [
        {
          "internalType": "address",
          "name": "spender",
          "type": "address"
        },
        {
          "internalType": "uint256",
          "name": "subtractedValue",
          "type": "uint256"
        }
      ],
      "name": "decreaseAllowance",
      "outputs": [
        {
          "internalType": "bool",
          "name": "",
          "type": "bool"
        }
      ],
      "stateMutability": "nonpayable",
      "type": "function"
    },
    {
      "inputs": [],
      "name": "implementation",
      "outputs": [
        {
          "internalType": "address",
          "name": "",
          "type": "address"
        }
      ],
      "stateMutability": "view",
      "type": "function"
    },
    {
      "inputs": [
        {
          "internalType": "address",
          "name": "spender",
          "type": "address"
        },
        {
          "internalType": "uint256",
          "name": "addedValue",
          "type": "uint256"
        }
      ],
      "name": "increaseAllowance",
      "outputs": [
        {
          "internalType": "bool",
          "name": "",
          "type": "bool"
        }
      ],
      "stateMutability": "nonpayable",
      "type": "function"
    },
    {
      "inputs": [],
      "name": "name",
      "outputs": [
        {
          "internalType": "string",
          "name": "",
          "type": "string"
        }
      ],
      "stateMutability": "view",
      "type": "function"
    },
    {
      "inputs": [],
      "name": "owner",
      "outputs": [
        {
          "internalType": "address",
          "name": "",
          "type": "address"
        }
      ],
      "stateMutability": "view",
      "type": "function"
    },
    {
      "inputs": [],
      "name": "paused",
      "outputs": [
        {
          "internalType": "bool",
          "name": "",
          "type": "bool"
        }
      ],
      "stateMutability": "view",
      "type": "function"
    },
    {
      "inputs": [],
      "name": "renounceOwnership",
      "outputs": [],
      "stateMutability": "nonpayable",
      "type": "function"
    },
    {
      "inputs": [],
      "name": "symbol",
      "outputs": [
        {
          "internalType": "string",
          "name": "",
          "type": "string"
        }
      ],
      "stateMutability": "view",
      "type": "function"
    },
    {
      "inputs": [],
      "name": "totalSupply",
      "outputs": [
        {
          "internalType": "uint256",
          "name": "",
          "type": "uint256"
        }
      ],
      "stateMutability": "view",
      "type": "function"
    },
    {
      "inputs": [
        {
          "internalType": "address",
          "name": "newOwner",
          "type": "address"
        }
      ],
      "name": "transferOwnership",
      "outputs": [],
      "stateMutability": "nonpayable",
      "type": "function"
    },
    {
      "stateMutability": "payable",
      "type": "receive"
    },
    {
      "inputs": [
        {
          "internalType": "address",
          "name": "recipient",
          "type": "address"
        },
        {
          "internalType": "uint256",
          "name": "amount",
          "type": "uint256"
        }
      ],
      "name": "transfer",
      "outputs": [
        {
          "internalType": "bool",
          "name": "",
          "type": "bool"
        }
      ],
      "stateMutability": "nonpayable",
      "type": "function"
    },
    {
      "inputs": [
        {
          "internalType": "address",
          "name": "sender",
          "type": "address"
        },
        {
          "internalType": "address",
          "name": "recipient",
          "type": "address"
        },
        {
          "internalType": "uint256",
          "name": "amount",
          "type": "uint256"
        }
      ],
      "name": "transferFrom",
      "outputs": [
        {
          "internalType": "bool",
          "name": "",
          "type": "bool"
        }
      ],
      "stateMutability": "nonpayable",
      "type": "function"
    },
    {
      "inputs": [
        {
          "internalType": "uint256",
          "name": "amount",
          "type": "uint256"
        }
      ],
      "name": "burn",
      "outputs": [],
      "stateMutability": "nonpayable",
      "type": "function"
    },
    {
      "inputs": [
        {
          "internalType": "uint256",
          "name": "amount",
          "type": "uint256"
        }
      ],
      "name": "mint",
      "outputs": [],
      "stateMutability": "nonpayable",
      "type": "function"
    }
  ],
  "bytecode": "0x60a060405268056bc75e2d6310000060809081525034801562000020575f80fd5b50604051620029d2380380620029d2833981810160405281019062000046919062000417565b6040518060400160405280600d81526020017f536576656e7446696e616e6365000000000000000000000000000000000000008152506040518060400160405280600681526020017f536576656e74000000000000000000000000000000000000000000000000000081525082805f806101000a81548173ffffffffffffffffffffffffffffffffffffffff021916908373ffffffffffffffffffffffffffffffffffffffff160217905550508160049081620001049190620006ab565b508060059081620001169190620006ab565b505050620001396200012d6200017860201b60201c565b6200017f60201b60201c565b5f600660146101000a81548160ff02191690831515021790555062000171336b014adf4b7320334b900000006200024260201b60201c565b50620008a0565b5f33905090565b5f60065f9054906101000a900473ffffffffffffffffffffffffffffffffffffffff1690508160065f6101000a81548173ffffffffffffffffffffffffffffffffffffffff021916908373ffffffffffffffffffffffffffffffffffffffff1602179055508173ffffffffffffffffffffffffffffffffffffffff168173ffffffffffffffffffffffffffffffffffffffff167f8be0079c531659141344cd1fd0a4f28419497f9722a3daafe3b4186f6b6457e060405160405180910390a35050565b5f73ffffffffffffffffffffffffffffffffffffffff168273ffffffffffffffffffffffffffffffffffffffff1603620002b3576040517f08c379a0000000000000000000000000000000000000000000000000000000008152600401620002aa90620007ed565b60405180910390fd5b620002c65f8383620003a860201b60201c565b8060035f828254620002d991906200083a565b925050819055508060015f8473ffffffffffffffffffffffffffffffffffffffff1673ffffffffffffffffffffffffffffffffffffffff1681526020019081526020015f205f82825401925050819055508173ffffffffffffffffffffffffffffffffffffffff165f73ffffffffffffffffffffffffffffffffffffffff167fddf252ad1be2c89b69c2b068fc378daa952ba7f163c4a11628f55a4df523b3ef8360405162000389919062000885565b60405180910390a3620003a45f8383620003ad60201b60201c565b5050565b505050565b505050565b5f80fd5b5f73ffffffffffffffffffffffffffffffffffffffff82169050919050565b5f620003e182620003b6565b9050919050565b620003f381620003d5565b8114620003fe575f80fd5b50565b5f815190506200041181620003e8565b92915050565b5f602082840312156200042f576200042e620003b2565b5b5f6200043e8482850162000401565b91505092915050565b5f81519050919050565b7f4e487b71000000000000000000000000000000000000000000000000000000005f52604160045260245ffd5b7f4e487b71000000000000000000000000000000000000000000000000000000005f52602260045260245ffd5b5f6002820490506001821680620004c357607f821691505b602082108103620004d957620004d86200047e565b5b50919050565b5f819050815f5260205f209050919050565b5f6020601f8301049050919050565b5f82821b905092915050565b5f600883026200053d7fffffffffffffffffffffffffffffffffffffffffffffffffffffffffffffffff8262000500565b62000549868362000500565b95508019841693508086168417925050509392505050565b5f819050919050565b5f819050919050565b5f620005936200058d620005878462000561565b6200056a565b62000561565b9050919050565b5f819050919050565b620005ae8362000573565b620005c6620005bd826200059a565b8484546200050c565b825550505050565b5f90565b620005dc620005ce565b620005e9818484620005a3565b505050565b5b818110156200061057620006045f82620005d2565b600181019050620005ef565b5050565b601f8211156200065f576200062981620004df565b6200063484620004f1565b8101602085101562000644578190505b6200065c6200065385620004f1565b830182620005ee565b50505b505050565b5f82821c905092915050565b5f620006815f198460080262000664565b1980831691505092915050565b5f6200069b838362000670565b9150826002028217905092915050565b620006b68262000447565b67ffffffffffffffff811115620006d257620006d162000451565b5b620006de8254620004ab565b620006eb82828562000614565b5f60209050601f83116001811462000721575f84156200070c578287015190505b6200071885826200068e565b86555062000787565b601f1984166200073186620004df565b5f5b828110156200075a5784890151825560018201915060208501945060208101905062000733565b868310156200077a578489015162000776601f89168262000670565b8355505b6001600288020188555050505b505050505050565b5f82825260208201905092915050565b7f45524332303a206d696e7420746f20746865207a65726f2061646472657373005f82015250565b5f620007d5601f836200078f565b9150620007e2826200079f565b602082019050919050565b5f6020820190508181035f8301526200080681620007c7565b9050919050565b7f4e487b71000000000000000000000000000000000000000000000000000000005f52601160045260245ffd5b5f620008468262000561565b9150620008538362000561565b92508282019050808211156200086e576200086d6200080d565b5b92915050565b6200087f8162000561565b82525050565b5f6020820190506200089a5f83018462000874565b92915050565b608051612119620008b95f395f6107d501526121195ff3fe608060405260043610610122575f3560e01c80635c975abb1161009f578063a0712d6811610063578063a0712d6814610418578063a457c2d714610440578063a9059cbb1461047c578063dd62ed3e146104b8578063f2fde38b146104f457610129565b80635c975abb1461034857806370a0823114610372578063715018a6146103ae5780638da5cb5b146103c457806395d89b41146103ee57610129565b8063313ce567116100e6578063313ce56714610266578063395093511461029057806342966c68146102cc5780635427789c146102f45780635c60da1b1461031e57610129565b806306fdde0314610170578063095ea7b31461019a57806318160ddd146101d657806323b872dd146102005780632ff2e9dc1461023c57610129565b3661012957005b5f805f9054906101000a900473ffffffffffffffffffffffffffffffffffffffff169050604051365f82375f803683855af43d805f843e815f811461016c578184f35b8184fd5b34801561017b575f80fd5b5061018461051c565b60405161019191906115d5565b60405180910390f35b3480156101a5575f80fd5b506101c060048036038101906101bb9190611686565b6105ac565b6040516101cd91906116de565b60405180910390f35b3480156101e1575f80fd5b506101ea6105ce565b6040516101f79190611706565b60405180910390f35b34801561020b575f80fd5b506102266004803603810190610221919061171f565b6105d7565b60405161023391906116de565b60405180910390f35b348015610247575f80fd5b5061025061072a565b60405161025d9190611706565b60405180910390f35b348015610271575f80fd5b5061027a61073a565b604051610287919061178a565b60405180910390f35b34801561029b575f80fd5b506102b660048036038101906102b19190611686565b610742565b6040516102c391906116de565b60405180910390f35b3480156102d7575f80fd5b506102f260048036038101906102ed91906117a3565b610778565b005b3480156102ff575f80fd5b506103086107d3565b6040516103159190611706565b60405180910390f35b348015610329575f80fd5b506103326107f7565b60405161033f91906117dd565b60405180910390f35b348015610353575f80fd5b5061035c61081a565b60405161036991906116de565b60405180910390f35b34801561037d575f80fd5b50610398600480360381019061039391906117f6565b610830565b6040516103a59190611706565b60405180910390f35b3480156103b9575f80fd5b506103c2610876565b005b3480156103cf575f80fd5b506103d8610889565b6040516103e591906117dd565b60405180910390f35b3480156103f9575f80fd5b506104026108b1565b60405161040f91906115d5565b60405180910390f35b348015610423575f80fd5b5061043e600480360381019061043991906117a3565b610941565b005b34801561044b575f80fd5b5061046660048036038101906104619190611686565b6109a4565b60405161047391906116de565b60405180910390f35b348015610487575f80fd5b506104a2600480360381019061049d9190611686565b610a19565b6040516104af91906116de565b60405180910390f35b3480156104c3575f80fd5b506104de60048036038101906104d99190611821565b610a8a565b6040516104eb9190611706565b60405180910390f35b3480156104ff575f80fd5b5061051a600480360381019061051591906117f6565b610b0c565b005b60606004805461052b9061188c565b80601f01602080910402602001604051908101604052809291908181526020018280546105579061188c565b80156105a25780601f10610579576101008083540402835291602001916105a2565b820191905f5260205f20905b81548152906001019060200180831161058557829003601f168201915b5050505050905090565b5f806105b6610b8e565b90506105c3818585610b95565b600191505092915050565b5f600354905090565b5f6105e0610d58565b8373ffffffffffffffffffffffffffffffffffffffff166105ff610b8e565b73ffffffffffffffffffffffffffffffffffffffff161480610631575061062d84610628610b8e565b610a8a565b8211155b610670576040517f08c379a00000000000000000000000000000000000000000000000000000000081526004016106679061192c565b60405180910390fd5b8373ffffffffffffffffffffffffffffffffffffffff1661068f610b8e565b73ffffffffffffffffffffffffffffffffffffffff16141580156106e357507fffffffffffffffffffffffffffffffffffffffffffffffffffffffffffffffff6106e0856106db610b8e565b610a8a565b14155b1561071657610715846106f4610b8e565b8461070688610701610b8e565b610a8a565b6107109190611977565b610b95565b5b610721848484610da2565b90509392505050565b6b014adf4b7320334b9000000081565b5f6012905090565b5f8061074c610b8e565b905061076d81858561075e8589610a8a565b61076891906119aa565b610b95565b600191505092915050565b6107823382610dd0565b3373ffffffffffffffffffffffffffffffffffffffff167f1af5163f80e79b5e554f61e1d052084d3a3fe1166e42a265798c4e2ddce8ffa2826040516107c89190611706565b60405180910390a250565b7f000000000000000000000000000000000000000000000000000000000000000081565b5f8054906101000a900473ffffffffffffffffffffffffffffffffffffffff1681565b5f600660149054906101000a900460ff16905090565b5f60015f8373ffffffffffffffffffffffffffffffffffffffff1673ffffffffffffffffffffffffffffffffffffffff1681526020019081526020015f20549050919050565b61087e610f95565b6108875f611013565b565b5f60065f9054906101000a900473ffffffffffffffffffffffffffffffffffffffff16905090565b6060600580546108c09061188c565b80601f01602080910402602001604051908101604052809291908181526020018280546108ec9061188c565b80156109375780601f1061090e57610100808354040283529160200191610937565b820191905f5260205f20905b81548152906001019060200180831161091a57829003601f168201915b5050505050905090565b610949610f95565b61095333826110d6565b3373ffffffffffffffffffffffffffffffffffffffff167fb9144c96c86541f6fa89c9f2f02495cccf4b08cd6643e26d34ee00aa586558a8826040516109999190611706565b60405180910390a250565b5f806109ae610b8e565b90505f6109bb8286610a8a565b905083811015610a00576040517f08c379a00000000000000000000000000000000000000000000000000000000081526004016109f790611a4d565b60405180910390fd5b610a0d8286868403610b95565b60019250505092915050565b5f610a22610d58565b610a2b33610830565b821115610a6d576040517f08c379a0000000000000000000000000000000000000000000000000000000008152600401610a6490611ab5565b60405180910390fd5b610a78338484611225565b610a828383611494565b905092915050565b5f60025f8473ffffffffffffffffffffffffffffffffffffffff1673ffffffffffffffffffffffffffffffffffffffff1681526020019081526020015f205f8373ffffffffffffffffffffffffffffffffffffffff1673ffffffffffffffffffffffffffffffffffffffff1681526020019081526020015f2054905092915050565b610b14610f95565b5f73ffffffffffffffffffffffffffffffffffffffff168173ffffffffffffffffffffffffffffffffffffffff1603610b82576040517f08c379a0000000000000000000000000000000000000000000000000000000008152600401610b7990611b43565b60405180910390fd5b610b8b81611013565b50565b5f33905090565b5f73ffffffffffffffffffffffffffffffffffffffff168373ffffffffffffffffffffffffffffffffffffffff1603610c03576040517f08c379a0000000000000000000000000000000000000000000000000000000008152600401610bfa90611bd1565b60405180910390fd5b5f73ffffffffffffffffffffffffffffffffffffffff168273ffffffffffffffffffffffffffffffffffffffff1603610c71576040517f08c379a0000000000000000000000000000000000000000000000000000000008152600401610c6890611c5f565b60405180910390fd5b8060025f8573ffffffffffffffffffffffffffffffffffffffff1673ffffffffffffffffffffffffffffffffffffffff1681526020019081526020015f205f8473ffffffffffffffffffffffffffffffffffffffff1673ffffffffffffffffffffffffffffffffffffffff1681526020019081526020015f20819055508173ffffffffffffffffffffffffffffffffffffffff168373ffffffffffffffffffffffffffffffffffffffff167f8c5be1e5ebec7d5bd14f71427d1e84f3dd0314c0f7b2291e5b200ac8c7c3b92583604051610d4b9190611706565b60405180910390a3505050565b610d6061081a565b15610da0576040517f08c379a0000000000000000000000000000000000000000000000000000000008152600401610d9790611cc7565b60405180910390fd5b565b5f80610dac610b8e565b9050610db98582856114b6565b610dc4858585611225565b60019150509392505050565b5f73ffffffffffffffffffffffffffffffffffffffff168273ffffffffffffffffffffffffffffffffffffffff1603610e3e576040517f08c379a0000000000000000000000000000000000000000000000000000000008152600401610e3590611d55565b60405180910390fd5b610e49825f83611541565b5f60015f8473ffffffffffffffffffffffffffffffffffffffff1673ffffffffffffffffffffffffffffffffffffffff1681526020019081526020015f2054905081811015610ecd576040517f08c379a0000000000000000000000000000000000000000000000000000000008152600401610ec490611de3565b60405180910390fd5b81810360015f8573ffffffffffffffffffffffffffffffffffffffff1673ffffffffffffffffffffffffffffffffffffffff1681526020019081526020015f20819055508160035f82825403925050819055505f73ffffffffffffffffffffffffffffffffffffffff168373ffffffffffffffffffffffffffffffffffffffff167fddf252ad1be2c89b69c2b068fc378daa952ba7f163c4a11628f55a4df523b3ef84604051610f7d9190611706565b60405180910390a3610f90835f84611546565b505050565b610f9d610b8e565b73ffffffffffffffffffffffffffffffffffffffff16610fbb610889565b73ffffffffffffffffffffffffffffffffffffffff1614611011576040517f08c379a000000000000000000000000000000000000000000000000000000000815260040161100890611e4b565b60405180910390fd5b565b5f60065f9054906101000a900473ffffffffffffffffffffffffffffffffffffffff1690508160065f6101000a81548173ffffffffffffffffffffffffffffffffffffffff021916908373ffffffffffffffffffffffffffffffffffffffff1602179055508173ffffffffffffffffffffffffffffffffffffffff168173ffffffffffffffffffffffffffffffffffffffff167f8be0079c531659141344cd1fd0a4f28419497f9722a3daafe3b4186f6b6457e060405160405180910390a35050565b5f73ffffffffffffffffffffffffffffffffffffffff168273ffffffffffffffffffffffffffffffffffffffff1603611144576040517f08c379a000000000000000000000000000000000000000000000000000000000815260040161113b90611eb3565b60405180910390fd5b61114f5f8383611541565b8060035f82825461116091906119aa565b925050819055508060015f8473ffffffffffffffffffffffffffffffffffffffff1673ffffffffffffffffffffffffffffffffffffffff1681526020019081526020015f205f82825401925050819055508173ffffffffffffffffffffffffffffffffffffffff165f73ffffffffffffffffffffffffffffffffffffffff167fddf252ad1be2c89b69c2b068fc378daa952ba7f163c4a11628f55a4df523b3ef8360405161120e9190611706565b60405180910390a36112215f8383611546565b5050565b5f73ffffffffffffffffffffffffffffffffffffffff168373ffffffffffffffffffffffffffffffffffffffff1603611293576040517f08c379a000000000000000000000000000000000000000000000000000000000815260040161128a90611f41565b60405180910390fd5b5f73ffffffffffffffffffffffffffffffffffffffff168273ffffffffffffffffffffffffffffffffffffffff1603611301576040517f08c379a00000000000000000000000000000000000000000000000000000000081526004016112f890611fcf565b60405180910390fd5b61130c838383611541565b5f60015f8573ffffffffffffffffffffffffffffffffffffffff1673ffffffffffffffffffffffffffffffffffffffff1681526020019081526020015f2054905081811015611390576040517f08c379a00000000000000000000000000000000000000000000000000000000081526004016113879061205d565b60405180910390fd5b81810360015f8673ffffffffffffffffffffffffffffffffffffffff1673ffffffffffffffffffffffffffffffffffffffff1681526020019081526020015f20819055508160015f8573ffffffffffffffffffffffffffffffffffffffff1673ffffffffffffffffffffffffffffffffffffffff1681526020019081526020015f205f82825401925050819055508273ffffffffffffffffffffffffffffffffffffffff168473ffffffffffffffffffffffffffffffffffffffff167fddf252ad1be2c89b69c2b068fc378daa952ba7f163c4a11628f55a4df523b3ef8460405161147b9190611706565b60405180910390a361148e848484611546565b50505050565b5f8061149e610b8e565b90506114ab818585611225565b600191505092915050565b5f6114c18484610a8a565b90507fffffffffffffffffffffffffffffffffffffffffffffffffffffffffffffffff811461153b578181101561152d576040517f08c379a0000000000000000000000000000000000000000000000000000000008152600401611524906120c5565b60405180910390fd5b61153a8484848403610b95565b5b50505050565b505050565b505050565b5f81519050919050565b5f82825260208201905092915050565b5f5b83811015611582578082015181840152602081019050611567565b5f8484015250505050565b5f601f19601f8301169050919050565b5f6115a78261154b565b6115b18185611555565b93506115c1818560208601611565565b6115ca8161158d565b840191505092915050565b5f6020820190508181035f8301526115ed818461159d565b905092915050565b5f80fd5b5f73ffffffffffffffffffffffffffffffffffffffff82169050919050565b5f611622826115f9565b9050919050565b61163281611618565b811461163c575f80fd5b50565b5f8135905061164d81611629565b92915050565b5f819050919050565b61166581611653565b811461166f575f80fd5b50565b5f813590506116808161165c565b92915050565b5f806040838503121561169c5761169b6115f5565b5b5f6116a98582860161163f565b92505060206116ba85828601611672565b9150509250929050565b5f8115159050919050565b6116d8816116c4565b82525050565b5f6020820190506116f15f8301846116cf565b92915050565b61170081611653565b82525050565b5f6020820190506117195f8301846116f7565b92915050565b5f805f60608486031215611736576117356115f5565b5b5f6117438682870161163f565b93505060206117548682870161163f565b925050604061176586828701611672565b9150509250925092565b5f60ff82169050919050565b6117848161176f565b82525050565b5f60208201905061179d5f83018461177b565b92915050565b5f602082840312156117b8576117b76115f5565b5b5f6117c584828501611672565b91505092915050565b6117d781611618565b82525050565b5f6020820190506117f05f8301846117ce565b92915050565b5f6020828403121561180b5761180a6115f5565b5b5f6118188482850161163f565b91505092915050565b5f8060408385031215611837576118366115f5565b5b5f6118448582860161163f565b92505060206118558582860161163f565b9150509250929050565b7f4e487b71000000000000000000000000000000000000000000000000000000005f52602260045260245ffd5b5f60028204905060018216806118a357607f821691505b6020821081036118b6576118b561185f565b5b50919050565b7f45524332303a207472616e7366657220616d6f756e74206578636565647320615f8201527f6c6c6f77616e6365000000000000000000000000000000000000000000000000602082015250565b5f611916602883611555565b9150611921826118bc565b604082019050919050565b5f6020820190508181035f8301526119438161190a565b9050919050565b7f4e487b71000000000000000000000000000000000000000000000000000000005f52601160045260245ffd5b5f61198182611653565b915061198c83611653565b92508282039050818111156119a4576119a361194a565b5b92915050565b5f6119b482611653565b91506119bf83611653565b92508282019050808211156119d7576119d661194a565b5b92915050565b7f45524332303a2064656372656173656420616c6c6f77616e63652062656c6f775f8201527f207a65726f000000000000000000000000000000000000000000000000000000602082015250565b5f611a37602583611555565b9150611a42826119dd565b604082019050919050565b5f6020820190508181035f830152611a6481611a2b565b9050919050565b7f696e73756666696369656e742062616c616e63650000000000000000000000005f82015250565b5f611a9f601483611555565b9150611aaa82611a6b565b602082019050919050565b5f6020820190508181035f830152611acc81611a93565b9050919050565b7f4f776e61626c653a206e6577206f776e657220697320746865207a65726f20615f8201527f6464726573730000000000000000000000000000000000000000000000000000602082015250565b5f611b2d602683611555565b9150611b3882611ad3565b604082019050919050565b5f6020820190508181035f830152611b5a81611b21565b9050919050565b7f45524332303a20617070726f76652066726f6d20746865207a65726f206164645f8201527f7265737300000000000000000000000000000000000000000000000000000000602082015250565b5f611bbb602483611555565b9150611bc682611b61565b604082019050919050565b5f6020820190508181035f830152611be881611baf565b9050919050565b7f45524332303a20617070726f766520746f20746865207a65726f2061646472655f8201527f7373000000000000000000000000000000000000000000000000000000000000602082015250565b5f611c49602283611555565b9150611c5482611bef565b604082019050919050565b5f6020820190508181035f830152611c7681611c3d565b9050919050565b7f5061757361626c653a20706175736564000000000000000000000000000000005f82015250565b5f611cb1601083611555565b9150611cbc82611c7d565b602082019050919050565b5f6020820190508181035f830152611cde81611ca5565b9050919050565b7f45524332303a206275726e2066726f6d20746865207a65726f206164647265735f8201527f7300000000000000000000000000000000000000000000000000000000000000602082015250565b5f611d3f602183611555565b9150611d4a82611ce5565b604082019050919050565b5f6020820190508181035f830152611d6c81611d33565b9050919050565b7f45524332303a206275726e20616d6f756e7420657863656564732062616c616e5f8201527f6365000000000000000000000000000000000000000000000000000000000000602082015250565b5f611dcd602283611555565b9150611dd882611d73565b604082019050919050565b5f6020820190508181035f830152611dfa81611dc1565b9050919050565b7f4f776e61626c653a2063616c6c6572206973206e6f7420746865206f776e65725f82015250565b5f611e35602083611555565b9150611e4082611e01565b602082019050919050565b5f6020820190508181035f830152611e6281611e29565b9050919050565b7f45524332303a206d696e7420746f20746865207a65726f2061646472657373005f82015250565b5f611e9d601f83611555565b9150611ea882611e69565b602082019050919050565b5f6020820190508181035f830152611eca81611e91565b9050919050565b7f45524332303a207472616e736665722066726f6d20746865207a65726f2061645f8201527f6472657373000000000000000000000000000000000000000000000000000000602082015250565b5f611f2b602583611555565b9150611f3682611ed1565b604082019050919050565b5f6020820190508181035f830152611f5881611f1f565b9050919050565b7f45524332303a207472616e7366657220746f20746865207a65726f20616464725f8201527f6573730000000000000000000000000000000000000000000000000000000000602082015250565b5f611fb9602383611555565b9150611fc482611f5f565b604082019050919050565b5f6020820190508181035f830152611fe681611fad565b9050919050565b7f45524332303a207472616e7366657220616d6f756e74206578636565647320625f8201527f616c616e63650000000000000000000000000000000000000000000000000000602082015250565b5f612047602683611555565b915061205282611fed565b604082019050919050565b5f6020820190508181035f8301526120748161203b565b9050919050565b7f45524332303a20696e73756666696369656e7420616c6c6f77616e63650000005f82015250565b5f6120af601d83611555565b91506120ba8261207b565b602082019050919050565b5f6020820190508181035f8301526120dc816120a3565b905091905056fea2646970667358221220ccdd13b2dc0a2fb25b16d9be072ba18f53b1995dc64f73508ee27148717206e764736f6c63430008140033",
  "immutableReferences": {
    "1345": [
      {
        "length": 32,
        "start": 2005
      }
    ]
  },
  "source": "// contracts/SeventToken.sol\r\n//SPDX-License-Identifier: MIT\r\n\r\nimport \"@openzeppelin/contracts/token/ERC20/ERC20.sol\";\r\nimport \"@openzeppelin/contracts/access/Ownable.sol\";\r\nimport \"@openzeppelin/contracts/security/Pausable.sol\";\r\nimport \"@openzeppelin/contracts/utils/math/SafeMath.sol\";\r\nimport \"./ISeventFinance.sol\";\r\nimport \"./Proxy.sol\";\r\n\r\npragma solidity ^0.8.19;\r\n\r\ncontract SeventFinance is Proxy, ERC20, Ownable, Pausable{\r\n\r\n    using SafeMath for uint256;\r\n    uint256 public constant INITIAL_SUPPLY = 400000000 * 10**18;\r\n    uint256 public immutable MINT_AMOUNT = 100 * 10**18;\r\n\r\n    event TokenBurned(address indexed burner, uint256 amount);\r\n    event TokenMinted(address indexed minter, uint256 amount);\r\n\r\n    constructor(address _implementation) Proxy(_implementation) ERC20(\"SeventFinance\", \"Sevent\") {\r\n        _mint(msg.sender, INITIAL_SUPPLY);\r\n    }\r\n\r\n    function transfer(address recipient, uint256 amount) public virtual override whenNotPaused returns(bool) {\r\n        require(amount <= balanceOf(msg.sender), \"insufficient balance\");\r\n\r\n        _transfer(msg.sender, recipient, amount);\r\n        return super.transfer(recipient, amount);\r\n    }\r\n\r\n    function transferFrom(address sender, address recipient, uint256 amount) public virtual whenNotPaused override returns (bool) {\r\n        require(_msgSender() == sender || amount <= allowance (sender, _msgSender()), \"ERC20: transfer amount exceeds allowance\");\r\n\r\n        if (_msgSender() != sender && allowance(sender, _msgSender()) != type(uint256).max) {\r\n            _approve(sender, _msgSender(), allowance(sender, _msgSender())- amount);\r\n        }\r\n        return super.transferFrom(sender, recipient, amount);\r\n    }\r\n\r\n    function burn(uint256 amount) public {\r\n        _burn(msg.sender, amount);\r\n        emit TokenBurned(msg.sender, amount);\r\n    }\r\n\r\n    function mint(uint256 amount) public onlyOwner{\r\n        _mint(msg.sender, amount);\r\n        emit TokenMinted(msg.sender, amount);\r\n    }\r\n\r\n}",
  "sourcePath": "D:\\sevenDAO\\MainContract\\contracts\\SeventFinance.sol",
  "compiler": {
    "name": "solc",
    "version": "0.8.20+commit.a1b79de6.Emscripten.clang"
  },
  "schemaVersion": "3.4.14",
  "updatedAt": "2023-08-04T13:50:53.684Z",
  "devdoc": {
    "events": {
      "Approval(address,address,uint256)": {
        "details": "Emitted when the allowance of a `spender` for an `owner` is set by a call to {approve}. `value` is the new allowance."
      },
      "Paused(address)": {
        "details": "Emitted when the pause is triggered by `account`."
      },
      "Transfer(address,address,uint256)": {
        "details": "Emitted when `value` tokens are moved from one account (`from`) to another (`to`). Note that `value` may be zero."
      },
      "Unpaused(address)": {
        "details": "Emitted when the pause is lifted by `account`."
      }
    },
    "kind": "dev",
    "methods": {
      "allowance(address,address)": {
        "details": "See {IERC20-allowance}."
      },
      "approve(address,uint256)": {
        "details": "See {IERC20-approve}. NOTE: If `amount` is the maximum `uint256`, the allowance is not updated on `transferFrom`. This is semantically equivalent to an infinite approval. Requirements: - `spender` cannot be the zero address."
      },
      "balanceOf(address)": {
        "details": "See {IERC20-balanceOf}."
      },
      "decimals()": {
        "details": "Returns the number of decimals used to get its user representation. For example, if `decimals` equals `2`, a balance of `505` tokens should be displayed to a user as `5.05` (`505 / 10 ** 2`). Tokens usually opt for a value of 18, imitating the relationship between Ether and Wei. This is the default value returned by this function, unless it's overridden. NOTE: This information is only used for _display_ purposes: it in no way affects any of the arithmetic of the contract, including {IERC20-balanceOf} and {IERC20-transfer}."
      },
      "decreaseAllowance(address,uint256)": {
        "details": "Atomically decreases the allowance granted to `spender` by the caller. This is an alternative to {approve} that can be used as a mitigation for problems described in {IERC20-approve}. Emits an {Approval} event indicating the updated allowance. Requirements: - `spender` cannot be the zero address. - `spender` must have allowance for the caller of at least `subtractedValue`."
      },
      "increaseAllowance(address,uint256)": {
        "details": "Atomically increases the allowance granted to `spender` by the caller. This is an alternative to {approve} that can be used as a mitigation for problems described in {IERC20-approve}. Emits an {Approval} event indicating the updated allowance. Requirements: - `spender` cannot be the zero address."
      },
      "name()": {
        "details": "Returns the name of the token."
      },
      "owner()": {
        "details": "Returns the address of the current owner."
      },
      "paused()": {
        "details": "Returns true if the contract is paused, and false otherwise."
      },
      "renounceOwnership()": {
        "details": "Leaves the contract without owner. It will not be possible to call `onlyOwner` functions. Can only be called by the current owner. NOTE: Renouncing ownership will leave the contract without an owner, thereby disabling any functionality that is only available to the owner."
      },
      "symbol()": {
        "details": "Returns the symbol of the token, usually a shorter version of the name."
      },
      "totalSupply()": {
        "details": "See {IERC20-totalSupply}."
      },
      "transferOwnership(address)": {
        "details": "Transfers ownership of the contract to a new account (`newOwner`). Can only be called by the current owner."
      }
    },
    "version": 1
  },
  "userdoc": {
    "kind": "user",
    "methods": {},
    "version": 1
  }
}