{
  "contractName": "SeventFinanceV2",
  "abi": [
    {
      "inputs": [
        {
          "internalType": "address",
          "name": "_implementation",
          "type": "address"
        },
        {
          "internalType": "address",
          "name": "_vestingBeneficiary",
          "type": "address"
        },
        {
          "internalType": "uint256",
          "name": "_vestingStart",
          "type": "uint256"
        },
        {
          "internalType": "uint256",
          "name": "_vestingCliff",
          "type": "uint256"
        },
        {
          "internalType": "uint256",
          "name": "_vestingDuration",
          "type": "uint256"
        },
        {
          "internalType": "address",
          "name": "_instagramAccount",
          "type": "address"
        },
        {
          "internalType": "address",
          "name": "_accountX",
          "type": "address"
        }
      ],
      "stateMutability": "nonpayable",
      "type": "constructor"
    },
    {
      "anonymous": false,
      "inputs": [
        {
          "indexed": true,
          "internalType": "address",
          "name": "instagramAccount",
          "type": "address"
        },
        {
          "indexed": true,
          "internalType": "address",
          "name": "accountX",
          "type": "address"
        }
      ],
      "name": "AirdropSet",
      "type": "event"
    },
    {
      "anonymous": false,
      "inputs": [
        {
          "indexed": true,
          "internalType": "address",
          "name": "owner",
          "type": "address"
        },
        {
          "indexed": true,
          "internalType": "address",
          "name": "spender",
          "type": "address"
        },
        {
          "indexed": false,
          "internalType": "uint256",
          "name": "value",
          "type": "uint256"
        }
      ],
      "name": "Approval",
      "type": "event"
    },
    {
      "anonymous": false,
      "inputs": [
        {
          "indexed": true,
          "internalType": "address",
          "name": "previousOwner",
          "type": "address"
        },
        {
          "indexed": true,
          "internalType": "address",
          "name": "newOwner",
          "type": "address"
        }
      ],
      "name": "OwnershipTransferred",
      "type": "event"
    },
    {
      "anonymous": false,
      "inputs": [
        {
          "indexed": false,
          "internalType": "address",
          "name": "account",
          "type": "address"
        }
      ],
      "name": "Paused",
      "type": "event"
    },
    {
      "anonymous": false,
      "inputs": [
        {
          "indexed": true,
          "internalType": "address",
          "name": "burner",
          "type": "address"
        },
        {
          "indexed": false,
          "internalType": "uint256",
          "name": "amount",
          "type": "uint256"
        }
      ],
      "name": "TokenBurned",
      "type": "event"
    },
    {
      "anonymous": false,
      "inputs": [
        {
          "indexed": true,
          "internalType": "address",
          "name": "minter",
          "type": "address"
        },
        {
          "indexed": false,
          "internalType": "uint256",
          "name": "amount",
          "type": "uint256"
        }
      ],
      "name": "TokenMinted",
      "type": "event"
    },
    {
      "anonymous": false,
      "inputs": [
        {
          "indexed": true,
          "internalType": "address",
          "name": "from",
          "type": "address"
        },
        {
          "indexed": true,
          "internalType": "address",
          "name": "to",
          "type": "address"
        },
        {
          "indexed": false,
          "internalType": "uint256",
          "name": "value",
          "type": "uint256"
        }
      ],
      "name": "Transfer",
      "type": "event"
    },
    {
      "anonymous": false,
      "inputs": [
        {
          "indexed": false,
          "internalType": "address",
          "name": "account",
          "type": "address"
        }
      ],
      "name": "Unpaused",
      "type": "event"
    },
    {
      "anonymous": false,
      "inputs": [
        {
          "indexed": true,
          "internalType": "address",
          "name": "beneficiary",
          "type": "address"
        },
        {
          "indexed": false,
          "internalType": "uint256",
          "name": "start",
          "type": "uint256"
        },
        {
          "indexed": false,
          "internalType": "uint256",
          "name": "cliff",
          "type": "uint256"
        },
        {
          "indexed": false,
          "internalType": "uint256",
          "name": "duration",
          "type": "uint256"
        }
      ],
      "name": "VestingSetup",
      "type": "event"
    },
    {
      "stateMutability": "payable",
      "type": "fallback"
    },
    {
      "inputs": [],
      "name": "INITIAL_SUPPLY",
      "outputs": [
        {
          "internalType": "uint256",
          "name": "",
          "type": "uint256"
        }
      ],
      "stateMutability": "view",
      "type": "function"
    },
    {
      "inputs": [],
      "name": "MINT_AMOUNT",
      "outputs": [
        {
          "internalType": "uint256",
          "name": "",
          "type": "uint256"
        }
      ],
      "stateMutability": "view",
      "type": "function"
    },
    {
      "inputs": [],
      "name": "accountX",
      "outputs": [
        {
          "internalType": "address",
          "name": "",
          "type": "address"
        }
      ],
      "stateMutability": "view",
      "type": "function"
    },
    {
      "inputs": [
        {
          "internalType": "address",
          "name": "owner",
          "type": "address"
        },
        {
          "internalType": "address",
          "name": "spender",
          "type": "address"
        }
      ],
      "name": "allowance",
      "outputs": [
        {
          "internalType": "uint256",
          "name": "",
          "type": "uint256"
        }
      ],
      "stateMutability": "view",
      "type": "function"
    },
    {
      "inputs": [
        {
          "internalType": "address",
          "name": "spender",
          "type": "address"
        },
        {
          "internalType": "uint256",
          "name": "amount",
          "type": "uint256"
        }
      ],
      "name": "approve",
      "outputs": [
        {
          "internalType": "bool",
          "name": "",
          "type": "bool"
        }
      ],
      "stateMutability": "nonpayable",
      "type": "function"
    },
    {
      "inputs": [
        {
          "internalType": "address",
          "name": "account",
          "type": "address"
        }
      ],
      "name": "balanceOf",
      "outputs": [
        {
          "internalType": "uint256",
          "name": "",
          "type": "uint256"
        }
      ],
      "stateMutability": "view",
      "type": "function"
    },
    {
      "inputs": [],
      "name": "decimals",
      "outputs": [
        {
          "internalType": "uint8",
          "name": "",
          "type": "uint8"
        }
      ],
      "stateMutability": "view",
      "type": "function"
    },
    {
      "inputs": [
        {
          "internalType": "address",
          "name": "spender",
          "type": "address"
        },
        {
          "internalType": "uint256",
          "name": "subtractedValue",
          "type": "uint256"
        }
      ],
      "name": "decreaseAllowance",
      "outputs": [
        {
          "internalType": "bool",
          "name": "",
          "type": "bool"
        }
      ],
      "stateMutability": "nonpayable",
      "type": "function"
    },
    {
      "inputs": [],
      "name": "implementation",
      "outputs": [
        {
          "internalType": "address",
          "name": "",
          "type": "address"
        }
      ],
      "stateMutability": "view",
      "type": "function"
    },
    {
      "inputs": [
        {
          "internalType": "address",
          "name": "spender",
          "type": "address"
        },
        {
          "internalType": "uint256",
          "name": "addedValue",
          "type": "uint256"
        }
      ],
      "name": "increaseAllowance",
      "outputs": [
        {
          "internalType": "bool",
          "name": "",
          "type": "bool"
        }
      ],
      "stateMutability": "nonpayable",
      "type": "function"
    },
    {
      "inputs": [],
      "name": "instagramAccount",
      "outputs": [
        {
          "internalType": "address",
          "name": "",
          "type": "address"
        }
      ],
      "stateMutability": "view",
      "type": "function"
    },
    {
      "inputs": [],
      "name": "name",
      "outputs": [
        {
          "internalType": "string",
          "name": "",
          "type": "string"
        }
      ],
      "stateMutability": "view",
      "type": "function"
    },
    {
      "inputs": [],
      "name": "owner",
      "outputs": [
        {
          "internalType": "address",
          "name": "",
          "type": "address"
        }
      ],
      "stateMutability": "view",
      "type": "function"
    },
    {
      "inputs": [],
      "name": "paused",
      "outputs": [
        {
          "internalType": "bool",
          "name": "",
          "type": "bool"
        }
      ],
      "stateMutability": "view",
      "type": "function"
    },
    {
      "inputs": [],
      "name": "renounceOwnership",
      "outputs": [],
      "stateMutability": "nonpayable",
      "type": "function"
    },
    {
      "inputs": [],
      "name": "symbol",
      "outputs": [
        {
          "internalType": "string",
          "name": "",
          "type": "string"
        }
      ],
      "stateMutability": "view",
      "type": "function"
    },
    {
      "inputs": [],
      "name": "totalSupply",
      "outputs": [
        {
          "internalType": "uint256",
          "name": "",
          "type": "uint256"
        }
      ],
      "stateMutability": "view",
      "type": "function"
    },
    {
      "inputs": [
        {
          "internalType": "address",
          "name": "newOwner",
          "type": "address"
        }
      ],
      "name": "transferOwnership",
      "outputs": [],
      "stateMutability": "nonpayable",
      "type": "function"
    },
    {
      "inputs": [],
      "name": "vestingBeneficiary",
      "outputs": [
        {
          "internalType": "address",
          "name": "",
          "type": "address"
        }
      ],
      "stateMutability": "view",
      "type": "function"
    },
    {
      "inputs": [],
      "name": "vestingCliff",
      "outputs": [
        {
          "internalType": "uint256",
          "name": "",
          "type": "uint256"
        }
      ],
      "stateMutability": "view",
      "type": "function"
    },
    {
      "inputs": [],
      "name": "vestingDuration",
      "outputs": [
        {
          "internalType": "uint256",
          "name": "",
          "type": "uint256"
        }
      ],
      "stateMutability": "view",
      "type": "function"
    },
    {
      "inputs": [],
      "name": "vestingStart",
      "outputs": [
        {
          "internalType": "uint256",
          "name": "",
          "type": "uint256"
        }
      ],
      "stateMutability": "view",
      "type": "function"
    },
    {
      "stateMutability": "payable",
      "type": "receive"
    },
    {
      "inputs": [
        {
          "internalType": "address",
          "name": "recipient",
          "type": "address"
        },
        {
          "internalType": "uint256",
          "name": "amount",
          "type": "uint256"
        }
      ],
      "name": "transfer",
      "outputs": [
        {
          "internalType": "bool",
          "name": "",
          "type": "bool"
        }
      ],
      "stateMutability": "nonpayable",
      "type": "function"
    },
    {
      "inputs": [
        {
          "internalType": "address",
          "name": "sender",
          "type": "address"
        },
        {
          "internalType": "address",
          "name": "recipient",
          "type": "address"
        },
        {
          "internalType": "uint256",
          "name": "amount",
          "type": "uint256"
        }
      ],
      "name": "transferFrom",
      "outputs": [
        {
          "internalType": "bool",
          "name": "",
          "type": "bool"
        }
      ],
      "stateMutability": "nonpayable",
      "type": "function"
    },
    {
      "inputs": [
        {
          "internalType": "uint256",
          "name": "amount",
          "type": "uint256"
        }
      ],
      "name": "burn",
      "outputs": [],
      "stateMutability": "nonpayable",
      "type": "function"
    },
    {
      "inputs": [
        {
          "internalType": "uint256",
          "name": "amount",
          "type": "uint256"
        }
      ],
      "name": "mint",
      "outputs": [],
      "stateMutability": "nonpayable",
      "type": "function"
    },
    {
      "inputs": [
        {
          "internalType": "address",
          "name": "beneficiary",
          "type": "address"
        },
        {
          "internalType": "uint256",
          "name": "start",
          "type": "uint256"
        },
        {
          "internalType": "uint256",
          "name": "cliff",
          "type": "uint256"
        },
        {
          "internalType": "uint256",
          "name": "duration",
          "type": "uint256"
        }
      ],
      "name": "setupVesting",
      "outputs": [],
      "stateMutability": "nonpayable",
      "type": "function"
    },
    {
      "inputs": [
        {
          "internalType": "address",
          "name": "_instagramAccount",
          "type": "address"
        },
        {
          "internalType": "address",
          "name": "_accountX",
          "type": "address"
        }
      ],
      "name": "setAirdrop",
      "outputs": [],
      "stateMutability": "nonpayable",
      "type": "function"
    },
    {
      "inputs": [],
      "name": "getVestedAmount",
      "outputs": [
        {
          "internalType": "uint256",
          "name": "",
          "type": "uint256"
        }
      ],
      "stateMutability": "view",
      "type": "function"
    }
  ],
  "bytecode": "0x60a060405268056bc75e2d6310000060809081525034801562000020575f80fd5b50604051620038193803806200381983398181016040528101906200004691906200052a565b6040518060400160405280600f81526020017f536576656e7446696e616e6365563200000000000000000000000000000000008152506040518060400160405280600381526020017f537674000000000000000000000000000000000000000000000000000000000081525088805f806101000a81548173ffffffffffffffffffffffffffffffffffffffff021916908373ffffffffffffffffffffffffffffffffffffffff16021790555050816004908162000104919062000833565b50806005908162000116919062000833565b505050620001396200012d6200025360201b60201c565b6200025a60201b60201c565b5f600660146101000a81548160ff02191690831515021790555062000171336b014adf4b7320334b900000006200031d60201b60201c565b8560075f6101000a81548173ffffffffffffffffffffffffffffffffffffffff021916908373ffffffffffffffffffffffffffffffffffffffff1602179055508460088190555083600a819055508260098190555081600b5f6101000a81548173ffffffffffffffffffffffffffffffffffffffff021916908373ffffffffffffffffffffffffffffffffffffffff16021790555080600c5f6101000a81548173ffffffffffffffffffffffffffffffffffffffff021916908373ffffffffffffffffffffffffffffffffffffffff1602179055505050505050505062000a28565b5f33905090565b5f60065f9054906101000a900473ffffffffffffffffffffffffffffffffffffffff1690508160065f6101000a81548173ffffffffffffffffffffffffffffffffffffffff021916908373ffffffffffffffffffffffffffffffffffffffff1602179055508173ffffffffffffffffffffffffffffffffffffffff168173ffffffffffffffffffffffffffffffffffffffff167f8be0079c531659141344cd1fd0a4f28419497f9722a3daafe3b4186f6b6457e060405160405180910390a35050565b5f73ffffffffffffffffffffffffffffffffffffffff168273ffffffffffffffffffffffffffffffffffffffff16036200038e576040517f08c379a0000000000000000000000000000000000000000000000000000000008152600401620003859062000975565b60405180910390fd5b620003a15f83836200048360201b60201c565b8060035f828254620003b49190620009c2565b925050819055508060015f8473ffffffffffffffffffffffffffffffffffffffff1673ffffffffffffffffffffffffffffffffffffffff1681526020019081526020015f205f82825401925050819055508173ffffffffffffffffffffffffffffffffffffffff165f73ffffffffffffffffffffffffffffffffffffffff167fddf252ad1be2c89b69c2b068fc378daa952ba7f163c4a11628f55a4df523b3ef8360405162000464919062000a0d565b60405180910390a36200047f5f83836200048860201b60201c565b5050565b505050565b505050565b5f80fd5b5f73ffffffffffffffffffffffffffffffffffffffff82169050919050565b5f620004bc8262000491565b9050919050565b620004ce81620004b0565b8114620004d9575f80fd5b50565b5f81519050620004ec81620004c3565b92915050565b5f819050919050565b6200050681620004f2565b811462000511575f80fd5b50565b5f815190506200052481620004fb565b92915050565b5f805f805f805f60e0888a0312156200054857620005476200048d565b5b5f620005578a828b01620004dc565b97505060206200056a8a828b01620004dc565b96505060406200057d8a828b0162000514565b9550506060620005908a828b0162000514565b9450506080620005a38a828b0162000514565b93505060a0620005b68a828b01620004dc565b92505060c0620005c98a828b01620004dc565b91505092959891949750929550565b5f81519050919050565b7f4e487b71000000000000000000000000000000000000000000000000000000005f52604160045260245ffd5b7f4e487b71000000000000000000000000000000000000000000000000000000005f52602260045260245ffd5b5f60028204905060018216806200065457607f821691505b6020821081036200066a57620006696200060f565b5b50919050565b5f819050815f5260205f209050919050565b5f6020601f8301049050919050565b5f82821b905092915050565b5f60088302620006ce7fffffffffffffffffffffffffffffffffffffffffffffffffffffffffffffffff8262000691565b620006da868362000691565b95508019841693508086168417925050509392505050565b5f819050919050565b5f6200071b620007156200070f84620004f2565b620006f2565b620004f2565b9050919050565b5f819050919050565b6200073683620006fb565b6200074e620007458262000722565b8484546200069d565b825550505050565b5f90565b6200076462000756565b620007718184846200072b565b505050565b5b8181101562000798576200078c5f826200075a565b60018101905062000777565b5050565b601f821115620007e757620007b18162000670565b620007bc8462000682565b81016020851015620007cc578190505b620007e4620007db8562000682565b83018262000776565b50505b505050565b5f82821c905092915050565b5f620008095f1984600802620007ec565b1980831691505092915050565b5f620008238383620007f8565b9150826002028217905092915050565b6200083e82620005d8565b67ffffffffffffffff8111156200085a5762000859620005e2565b5b6200086682546200063c565b620008738282856200079c565b5f60209050601f831160018114620008a9575f841562000894578287015190505b620008a0858262000816565b8655506200090f565b601f198416620008b98662000670565b5f5b82811015620008e257848901518255600182019150602085019450602081019050620008bb565b86831015620009025784890151620008fe601f891682620007f8565b8355505b6001600288020188555050505b505050505050565b5f82825260208201905092915050565b7f45524332303a206d696e7420746f20746865207a65726f2061646472657373005f82015250565b5f6200095d601f8362000917565b91506200096a8262000927565b602082019050919050565b5f6020820190508181035f8301526200098e816200094f565b9050919050565b7f4e487b71000000000000000000000000000000000000000000000000000000005f52601160045260245ffd5b5f620009ce82620004f2565b9150620009db83620004f2565b9250828201905080821115620009f657620009f562000995565b5b92915050565b62000a0781620004f2565b82525050565b5f60208201905062000a225f830184620009fc565b92915050565b608051612dd862000a415f395f610aee0152612dd85ff3fe6080604052600436106101c5575f3560e01c80635d4cbfbb116100f65780639f2d9f2a11610094578063b3f71eb611610063578063b3f71eb61461067f578063dd62ed3e146106a7578063f2fde38b146106e3578063f3640e741461070b576101cc565b80639f2d9f2a146105b5578063a0712d68146105df578063a457c2d714610607578063a9059cbb14610643576101cc565b806380c2f09e116100d057806380c2f09e1461050d578063847f05d9146105375780638da5cb5b1461056157806395d89b411461058b576101cc565b80635d4cbfbb1461049357806370a08231146104bb578063715018a6146104f7576101cc565b8063313ce567116101635780635427789c1161013d5780635427789c146103eb5780635a129164146104155780635c60da1b1461043f5780635c975abb14610469576101cc565b8063313ce5671461035d578063395093511461038757806342966c68146103c3576101cc565b806318160ddd1161019f57806318160ddd146102a357806323b872dd146102cd578063254800d4146103095780632ff2e9dc14610333576101cc565b806306fdde0314610213578063095ea7b31461023d5780631514617e14610279576101cc565b366101cc57005b5f805f9054906101000a900473ffffffffffffffffffffffffffffffffffffffff169050604051365f82375f803683855af43d805f843e815f811461020f578184f35b8184fd5b34801561021e575f80fd5b50610227610735565b6040516102349190611ea1565b60405180910390f35b348015610248575f80fd5b50610263600480360381019061025e9190611f52565b6107c5565b6040516102709190611faa565b60405180910390f35b348015610284575f80fd5b5061028d6107e7565b60405161029a9190611fd2565b60405180910390f35b3480156102ae575f80fd5b506102b76107ed565b6040516102c49190611fd2565b60405180910390f35b3480156102d8575f80fd5b506102f360048036038101906102ee9190611feb565b6107f6565b6040516103009190611faa565b60405180910390f35b348015610314575f80fd5b5061031d610a3d565b60405161032a9190611fd2565b60405180910390f35b34801561033e575f80fd5b50610347610a43565b6040516103549190611fd2565b60405180910390f35b348015610368575f80fd5b50610371610a53565b60405161037e9190612056565b60405180910390f35b348015610392575f80fd5b506103ad60048036038101906103a89190611f52565b610a5b565b6040516103ba9190611faa565b60405180910390f35b3480156103ce575f80fd5b506103e960048036038101906103e4919061206f565b610a91565b005b3480156103f6575f80fd5b506103ff610aec565b60405161040c9190611fd2565b60405180910390f35b348015610420575f80fd5b50610429610b10565b60405161043691906120a9565b60405180910390f35b34801561044a575f80fd5b50610453610b35565b60405161046091906120a9565b60405180910390f35b348015610474575f80fd5b5061047d610b58565b60405161048a9190611faa565b60405180910390f35b34801561049e575f80fd5b506104b960048036038101906104b491906120c2565b610b6e565b005b3480156104c6575f80fd5b506104e160048036038101906104dc9190612126565b610d17565b6040516104ee9190611fd2565b60405180910390f35b348015610502575f80fd5b5061050b610d5d565b005b348015610518575f80fd5b50610521610d70565b60405161052e91906120a9565b60405180910390f35b348015610542575f80fd5b5061054b610d95565b60405161055891906120a9565b60405180910390f35b34801561056c575f80fd5b50610575610dba565b60405161058291906120a9565b60405180910390f35b348015610596575f80fd5b5061059f610de2565b6040516105ac9190611ea1565b60405180910390f35b3480156105c0575f80fd5b506105c9610e72565b6040516105d69190611fd2565b60405180910390f35b3480156105ea575f80fd5b506106056004803603810190610600919061206f565b610f3d565b005b348015610612575f80fd5b5061062d60048036038101906106289190611f52565b610fa0565b60405161063a9190611faa565b60405180910390f35b34801561064e575f80fd5b5061066960048036038101906106649190611f52565b611015565b6040516106769190611faa565b60405180910390f35b34801561068a575f80fd5b506106a560048036038101906106a09190612151565b61116f565b005b3480156106b2575f80fd5b506106cd60048036038101906106c89190612151565b6112fc565b6040516106da9190611fd2565b60405180910390f35b3480156106ee575f80fd5b5061070960048036038101906107049190612126565b61137e565b005b348015610716575f80fd5b5061071f611400565b60405161072c9190611fd2565b60405180910390f35b606060048054610744906121bc565b80601f0160208091040260200160405190810160405280929190818152602001828054610770906121bc565b80156107bb5780601f10610792576101008083540402835291602001916107bb565b820191905f5260205f20905b81548152906001019060200180831161079e57829003601f168201915b5050505050905090565b5f806107cf611406565b90506107dc81858561140d565b600191505092915050565b60095481565b5f600354905090565b5f6107ff6115d0565b8373ffffffffffffffffffffffffffffffffffffffff1661081e611406565b73ffffffffffffffffffffffffffffffffffffffff161480610850575061084c84610847611406565b6112fc565b8211155b61088f576040517f08c379a00000000000000000000000000000000000000000000000000000000081526004016108869061225c565b60405180910390fd5b60075f9054906101000a900473ffffffffffffffffffffffffffffffffffffffff1673ffffffffffffffffffffffffffffffffffffffff168473ffffffffffffffffffffffffffffffffffffffff160361097857600854421015610928576040517f08c379a000000000000000000000000000000000000000000000000000000000815260040161091f906122c4565b60405180910390fd5b5f610931610e72565b905080831115610976576040517f08c379a000000000000000000000000000000000000000000000000000000000815260040161096d9061232c565b60405180910390fd5b505b61098384848461161a565b8373ffffffffffffffffffffffffffffffffffffffff166109a2611406565b73ffffffffffffffffffffffffffffffffffffffff16141580156109f657507fffffffffffffffffffffffffffffffffffffffffffffffffffffffffffffffff6109f3856109ee611406565b6112fc565b14155b15610a2957610a2884610a07611406565b84610a1988610a14611406565b6112fc565b610a239190612377565b61140d565b5b610a34848484611889565b90509392505050565b60085481565b6b014adf4b7320334b9000000081565b5f6012905090565b5f80610a65611406565b9050610a86818585610a7785896112fc565b610a8191906123aa565b61140d565b600191505092915050565b610a9b33826118b7565b3373ffffffffffffffffffffffffffffffffffffffff167f1af5163f80e79b5e554f61e1d052084d3a3fe1166e42a265798c4e2ddce8ffa282604051610ae19190611fd2565b60405180910390a250565b7f000000000000000000000000000000000000000000000000000000000000000081565b60075f9054906101000a900473ffffffffffffffffffffffffffffffffffffffff1681565b5f8054906101000a900473ffffffffffffffffffffffffffffffffffffffff1681565b5f600660149054906101000a900460ff16905090565b610b76611a7c565b5f73ffffffffffffffffffffffffffffffffffffffff168473ffffffffffffffffffffffffffffffffffffffff1603610be4576040517f08c379a0000000000000000000000000000000000000000000000000000000008152600401610bdb90612427565b60405180910390fd5b42831015610c27576040517f08c379a0000000000000000000000000000000000000000000000000000000008152600401610c1e906124b5565b60405180910390fd5b82821015610c6a576040517f08c379a0000000000000000000000000000000000000000000000000000000008152600401610c6190612543565b60405180910390fd5b8360075f6101000a81548173ffffffffffffffffffffffffffffffffffffffff021916908373ffffffffffffffffffffffffffffffffffffffff1602179055508260088190555081600a81905550806009819055508373ffffffffffffffffffffffffffffffffffffffff167f27834c1b968e476694cc881088e38c895ae46d839dbcc4facd8f8cb06e101821848484604051610d0993929190612561565b60405180910390a250505050565b5f60015f8373ffffffffffffffffffffffffffffffffffffffff1673ffffffffffffffffffffffffffffffffffffffff1681526020019081526020015f20549050919050565b610d65611a7c565b610d6e5f611afa565b565b600c5f9054906101000a900473ffffffffffffffffffffffffffffffffffffffff1681565b600b5f9054906101000a900473ffffffffffffffffffffffffffffffffffffffff1681565b5f60065f9054906101000a900473ffffffffffffffffffffffffffffffffffffffff16905090565b606060058054610df1906121bc565b80601f0160208091040260200160405190810160405280929190818152602001828054610e1d906121bc565b8015610e685780601f10610e3f57610100808354040283529160200191610e68565b820191905f5260205f20905b815481529060010190602001808311610e4b57829003601f168201915b5050505050905090565b5f600a54421015610e85575f9050610f3a565b610e9c600954600854611bbd90919063ffffffff16565b4210610ed357610ecc60075f9054906101000a900473ffffffffffffffffffffffffffffffffffffffff16610d17565b9050610f3a565b610f37600954610f29610ef1600a5442611bd290919063ffffffff16565b610f1b60075f9054906101000a900473ffffffffffffffffffffffffffffffffffffffff16610d17565b611be790919063ffffffff16565b611bfc90919063ffffffff16565b90505b90565b610f45611a7c565b610f4f3382611c11565b3373ffffffffffffffffffffffffffffffffffffffff167fb9144c96c86541f6fa89c9f2f02495cccf4b08cd6643e26d34ee00aa586558a882604051610f959190611fd2565b60405180910390a250565b5f80610faa611406565b90505f610fb782866112fc565b905083811015610ffc576040517f08c379a0000000000000000000000000000000000000000000000000000000008152600401610ff390612606565b60405180910390fd5b611009828686840361140d565b60019250505092915050565b5f61101e6115d0565b61102733610d17565b821115611069576040517f08c379a00000000000000000000000000000000000000000000000000000000081526004016110609061266e565b60405180910390fd5b60075f9054906101000a900473ffffffffffffffffffffffffffffffffffffffff1673ffffffffffffffffffffffffffffffffffffffff163373ffffffffffffffffffffffffffffffffffffffff160361115257600854421015611102576040517f08c379a00000000000000000000000000000000000000000000000000000000081526004016110f9906122c4565b60405180910390fd5b5f61110b610e72565b905080831115611150576040517f08c379a00000000000000000000000000000000000000000000000000000000081526004016111479061232c565b60405180910390fd5b505b61115d33848461161a565b6111678383611d60565b905092915050565b611177611a7c565b5f73ffffffffffffffffffffffffffffffffffffffff168273ffffffffffffffffffffffffffffffffffffffff16141580156111df57505f73ffffffffffffffffffffffffffffffffffffffff168173ffffffffffffffffffffffffffffffffffffffff1614155b61121e576040517f08c379a0000000000000000000000000000000000000000000000000000000008152600401611215906126d6565b60405180910390fd5b81600b5f6101000a81548173ffffffffffffffffffffffffffffffffffffffff021916908373ffffffffffffffffffffffffffffffffffffffff16021790555080600c5f6101000a81548173ffffffffffffffffffffffffffffffffffffffff021916908373ffffffffffffffffffffffffffffffffffffffff1602179055508073ffffffffffffffffffffffffffffffffffffffff168273ffffffffffffffffffffffffffffffffffffffff167f9e12403a7804aff8eb5d5a07cc709bd93072a31c93bbbc8d5ba3b47cf4b3f8fe60405160405180910390a35050565b5f60025f8473ffffffffffffffffffffffffffffffffffffffff1673ffffffffffffffffffffffffffffffffffffffff1681526020019081526020015f205f8373ffffffffffffffffffffffffffffffffffffffff1673ffffffffffffffffffffffffffffffffffffffff1681526020019081526020015f2054905092915050565b611386611a7c565b5f73ffffffffffffffffffffffffffffffffffffffff168173ffffffffffffffffffffffffffffffffffffffff16036113f4576040517f08c379a00000000000000000000000000000000000000000000000000000000081526004016113eb90612764565b60405180910390fd5b6113fd81611afa565b50565b600a5481565b5f33905090565b5f73ffffffffffffffffffffffffffffffffffffffff168373ffffffffffffffffffffffffffffffffffffffff160361147b576040517f08c379a0000000000000000000000000000000000000000000000000000000008152600401611472906127f2565b60405180910390fd5b5f73ffffffffffffffffffffffffffffffffffffffff168273ffffffffffffffffffffffffffffffffffffffff16036114e9576040517f08c379a00000000000000000000000000000000000000000000000000000000081526004016114e090612880565b60405180910390fd5b8060025f8573ffffffffffffffffffffffffffffffffffffffff1673ffffffffffffffffffffffffffffffffffffffff1681526020019081526020015f205f8473ffffffffffffffffffffffffffffffffffffffff1673ffffffffffffffffffffffffffffffffffffffff1681526020019081526020015f20819055508173ffffffffffffffffffffffffffffffffffffffff168373ffffffffffffffffffffffffffffffffffffffff167f8c5be1e5ebec7d5bd14f71427d1e84f3dd0314c0f7b2291e5b200ac8c7c3b925836040516115c39190611fd2565b60405180910390a3505050565b6115d8610b58565b15611618576040517f08c379a000000000000000000000000000000000000000000000000000000000815260040161160f906128e8565b60405180910390fd5b565b5f73ffffffffffffffffffffffffffffffffffffffff168373ffffffffffffffffffffffffffffffffffffffff1603611688576040517f08c379a000000000000000000000000000000000000000000000000000000000815260040161167f90612976565b60405180910390fd5b5f73ffffffffffffffffffffffffffffffffffffffff168273ffffffffffffffffffffffffffffffffffffffff16036116f6576040517f08c379a00000000000000000000000000000000000000000000000000000000081526004016116ed90612a04565b60405180910390fd5b611701838383611d82565b5f60015f8573ffffffffffffffffffffffffffffffffffffffff1673ffffffffffffffffffffffffffffffffffffffff1681526020019081526020015f2054905081811015611785576040517f08c379a000000000000000000000000000000000000000000000000000000000815260040161177c90612a92565b60405180910390fd5b81810360015f8673ffffffffffffffffffffffffffffffffffffffff1673ffffffffffffffffffffffffffffffffffffffff1681526020019081526020015f20819055508160015f8573ffffffffffffffffffffffffffffffffffffffff1673ffffffffffffffffffffffffffffffffffffffff1681526020019081526020015f205f82825401925050819055508273ffffffffffffffffffffffffffffffffffffffff168473ffffffffffffffffffffffffffffffffffffffff167fddf252ad1be2c89b69c2b068fc378daa952ba7f163c4a11628f55a4df523b3ef846040516118709190611fd2565b60405180910390a3611883848484611d87565b50505050565b5f80611893611406565b90506118a0858285611d8c565b6118ab85858561161a565b60019150509392505050565b5f73ffffffffffffffffffffffffffffffffffffffff168273ffffffffffffffffffffffffffffffffffffffff1603611925576040517f08c379a000000000000000000000000000000000000000000000000000000000815260040161191c90612b20565b60405180910390fd5b611930825f83611d82565b5f60015f8473ffffffffffffffffffffffffffffffffffffffff1673ffffffffffffffffffffffffffffffffffffffff1681526020019081526020015f20549050818110156119b4576040517f08c379a00000000000000000000000000000000000000000000000000000000081526004016119ab90612bae565b60405180910390fd5b81810360015f8573ffffffffffffffffffffffffffffffffffffffff1673ffffffffffffffffffffffffffffffffffffffff1681526020019081526020015f20819055508160035f82825403925050819055505f73ffffffffffffffffffffffffffffffffffffffff168373ffffffffffffffffffffffffffffffffffffffff167fddf252ad1be2c89b69c2b068fc378daa952ba7f163c4a11628f55a4df523b3ef84604051611a649190611fd2565b60405180910390a3611a77835f84611d87565b505050565b611a84611406565b73ffffffffffffffffffffffffffffffffffffffff16611aa2610dba565b73ffffffffffffffffffffffffffffffffffffffff1614611af8576040517f08c379a0000000000000000000000000000000000000000000000000000000008152600401611aef90612c16565b60405180910390fd5b565b5f60065f9054906101000a900473ffffffffffffffffffffffffffffffffffffffff1690508160065f6101000a81548173ffffffffffffffffffffffffffffffffffffffff021916908373ffffffffffffffffffffffffffffffffffffffff1602179055508173ffffffffffffffffffffffffffffffffffffffff168173ffffffffffffffffffffffffffffffffffffffff167f8be0079c531659141344cd1fd0a4f28419497f9722a3daafe3b4186f6b6457e060405160405180910390a35050565b5f8183611bca91906123aa565b905092915050565b5f8183611bdf9190612377565b905092915050565b5f8183611bf49190612c34565b905092915050565b5f8183611c099190612ca2565b905092915050565b5f73ffffffffffffffffffffffffffffffffffffffff168273ffffffffffffffffffffffffffffffffffffffff1603611c7f576040517f08c379a0000000000000000000000000000000000000000000000000000000008152600401611c7690612d1c565b60405180910390fd5b611c8a5f8383611d82565b8060035f828254611c9b91906123aa565b925050819055508060015f8473ffffffffffffffffffffffffffffffffffffffff1673ffffffffffffffffffffffffffffffffffffffff1681526020019081526020015f205f82825401925050819055508173ffffffffffffffffffffffffffffffffffffffff165f73ffffffffffffffffffffffffffffffffffffffff167fddf252ad1be2c89b69c2b068fc378daa952ba7f163c4a11628f55a4df523b3ef83604051611d499190611fd2565b60405180910390a3611d5c5f8383611d87565b5050565b5f80611d6a611406565b9050611d7781858561161a565b600191505092915050565b505050565b505050565b5f611d9784846112fc565b90507fffffffffffffffffffffffffffffffffffffffffffffffffffffffffffffffff8114611e115781811015611e03576040517f08c379a0000000000000000000000000000000000000000000000000000000008152600401611dfa90612d84565b60405180910390fd5b611e10848484840361140d565b5b50505050565b5f81519050919050565b5f82825260208201905092915050565b5f5b83811015611e4e578082015181840152602081019050611e33565b5f8484015250505050565b5f601f19601f8301169050919050565b5f611e7382611e17565b611e7d8185611e21565b9350611e8d818560208601611e31565b611e9681611e59565b840191505092915050565b5f6020820190508181035f830152611eb98184611e69565b905092915050565b5f80fd5b5f73ffffffffffffffffffffffffffffffffffffffff82169050919050565b5f611eee82611ec5565b9050919050565b611efe81611ee4565b8114611f08575f80fd5b50565b5f81359050611f1981611ef5565b92915050565b5f819050919050565b611f3181611f1f565b8114611f3b575f80fd5b50565b5f81359050611f4c81611f28565b92915050565b5f8060408385031215611f6857611f67611ec1565b5b5f611f7585828601611f0b565b9250506020611f8685828601611f3e565b9150509250929050565b5f8115159050919050565b611fa481611f90565b82525050565b5f602082019050611fbd5f830184611f9b565b92915050565b611fcc81611f1f565b82525050565b5f602082019050611fe55f830184611fc3565b92915050565b5f805f6060848603121561200257612001611ec1565b5b5f61200f86828701611f0b565b935050602061202086828701611f0b565b925050604061203186828701611f3e565b9150509250925092565b5f60ff82169050919050565b6120508161203b565b82525050565b5f6020820190506120695f830184612047565b92915050565b5f6020828403121561208457612083611ec1565b5b5f61209184828501611f3e565b91505092915050565b6120a381611ee4565b82525050565b5f6020820190506120bc5f83018461209a565b92915050565b5f805f80608085870312156120da576120d9611ec1565b5b5f6120e787828801611f0b565b94505060206120f887828801611f3e565b935050604061210987828801611f3e565b925050606061211a87828801611f3e565b91505092959194509250565b5f6020828403121561213b5761213a611ec1565b5b5f61214884828501611f0b565b91505092915050565b5f806040838503121561216757612166611ec1565b5b5f61217485828601611f0b565b925050602061218585828601611f0b565b9150509250929050565b7f4e487b71000000000000000000000000000000000000000000000000000000005f52602260045260245ffd5b5f60028204905060018216806121d357607f821691505b6020821081036121e6576121e561218f565b5b50919050565b7f45524332303a207472616e7366657220616d6f756e74206578636565647320615f8201527f6c6c6f77616e6365000000000000000000000000000000000000000000000000602082015250565b5f612246602883611e21565b9150612251826121ec565b604082019050919050565b5f6020820190508181035f8301526122738161223a565b9050919050565b7f56657374696e6720686173206e6f7420737461727465642079657400000000005f82015250565b5f6122ae601b83611e21565b91506122b98261227a565b602082019050919050565b5f6020820190508181035f8301526122db816122a2565b9050919050565b7f496e73756666696369656e74207665737465642062616c616e636500000000005f82015250565b5f612316601b83611e21565b9150612321826122e2565b602082019050919050565b5f6020820190508181035f8301526123438161230a565b9050919050565b7f4e487b71000000000000000000000000000000000000000000000000000000005f52601160045260245ffd5b5f61238182611f1f565b915061238c83611f1f565b92508282039050818111156123a4576123a361234a565b5b92915050565b5f6123b482611f1f565b91506123bf83611f1f565b92508282019050808211156123d7576123d661234a565b5b92915050565b7f496e76616c69642062656e6566696369617279206164647265737300000000005f82015250565b5f612411601b83611e21565b915061241c826123dd565b602082019050919050565b5f6020820190508181035f83015261243e81612405565b9050919050565b7f53746172742074696d652073686f756c6420626520696e2074686520667574755f8201527f7265000000000000000000000000000000000000000000000000000000000000602082015250565b5f61249f602283611e21565b91506124aa82612445565b604082019050919050565b5f6020820190508181035f8301526124cc81612493565b9050919050565b7f436c6966662074696d652073686f756c642062652067726561746572207468615f8201527f6e206f7220657175616c20746f2073746172742074696d650000000000000000602082015250565b5f61252d603883611e21565b9150612538826124d3565b604082019050919050565b5f6020820190508181035f83015261255a81612521565b9050919050565b5f6060820190506125745f830186611fc3565b6125816020830185611fc3565b61258e6040830184611fc3565b949350505050565b7f45524332303a2064656372656173656420616c6c6f77616e63652062656c6f775f8201527f207a65726f000000000000000000000000000000000000000000000000000000602082015250565b5f6125f0602583611e21565b91506125fb82612596565b604082019050919050565b5f6020820190508181035f83015261261d816125e4565b9050919050565b7f696e73756666696369656e742062616c616e63650000000000000000000000005f82015250565b5f612658601483611e21565b915061266382612624565b602082019050919050565b5f6020820190508181035f8301526126858161264c565b9050919050565b7f496e76616c69642061697264726f7020616464726573736573000000000000005f82015250565b5f6126c0601983611e21565b91506126cb8261268c565b602082019050919050565b5f6020820190508181035f8301526126ed816126b4565b9050919050565b7f4f776e61626c653a206e6577206f776e657220697320746865207a65726f20615f8201527f6464726573730000000000000000000000000000000000000000000000000000602082015250565b5f61274e602683611e21565b9150612759826126f4565b604082019050919050565b5f6020820190508181035f83015261277b81612742565b9050919050565b7f45524332303a20617070726f76652066726f6d20746865207a65726f206164645f8201527f7265737300000000000000000000000000000000000000000000000000000000602082015250565b5f6127dc602483611e21565b91506127e782612782565b604082019050919050565b5f6020820190508181035f830152612809816127d0565b9050919050565b7f45524332303a20617070726f766520746f20746865207a65726f2061646472655f8201527f7373000000000000000000000000000000000000000000000000000000000000602082015250565b5f61286a602283611e21565b915061287582612810565b604082019050919050565b5f6020820190508181035f8301526128978161285e565b9050919050565b7f5061757361626c653a20706175736564000000000000000000000000000000005f82015250565b5f6128d2601083611e21565b91506128dd8261289e565b602082019050919050565b5f6020820190508181035f8301526128ff816128c6565b9050919050565b7f45524332303a207472616e736665722066726f6d20746865207a65726f2061645f8201527f6472657373000000000000000000000000000000000000000000000000000000602082015250565b5f612960602583611e21565b915061296b82612906565b604082019050919050565b5f6020820190508181035f83015261298d81612954565b9050919050565b7f45524332303a207472616e7366657220746f20746865207a65726f20616464725f8201527f6573730000000000000000000000000000000000000000000000000000000000602082015250565b5f6129ee602383611e21565b91506129f982612994565b604082019050919050565b5f6020820190508181035f830152612a1b816129e2565b9050919050565b7f45524332303a207472616e7366657220616d6f756e74206578636565647320625f8201527f616c616e63650000000000000000000000000000000000000000000000000000602082015250565b5f612a7c602683611e21565b9150612a8782612a22565b604082019050919050565b5f6020820190508181035f830152612aa981612a70565b9050919050565b7f45524332303a206275726e2066726f6d20746865207a65726f206164647265735f8201527f7300000000000000000000000000000000000000000000000000000000000000602082015250565b5f612b0a602183611e21565b9150612b1582612ab0565b604082019050919050565b5f6020820190508181035f830152612b3781612afe565b9050919050565b7f45524332303a206275726e20616d6f756e7420657863656564732062616c616e5f8201527f6365000000000000000000000000000000000000000000000000000000000000602082015250565b5f612b98602283611e21565b9150612ba382612b3e565b604082019050919050565b5f6020820190508181035f830152612bc581612b8c565b9050919050565b7f4f776e61626c653a2063616c6c6572206973206e6f7420746865206f776e65725f82015250565b5f612c00602083611e21565b9150612c0b82612bcc565b602082019050919050565b5f6020820190508181035f830152612c2d81612bf4565b9050919050565b5f612c3e82611f1f565b9150612c4983611f1f565b9250828202612c5781611f1f565b91508282048414831517612c6e57612c6d61234a565b5b5092915050565b7f4e487b71000000000000000000000000000000000000000000000000000000005f52601260045260245ffd5b5f612cac82611f1f565b9150612cb783611f1f565b925082612cc757612cc6612c75565b5b828204905092915050565b7f45524332303a206d696e7420746f20746865207a65726f2061646472657373005f82015250565b5f612d06601f83611e21565b9150612d1182612cd2565b602082019050919050565b5f6020820190508181035f830152612d3381612cfa565b9050919050565b7f45524332303a20696e73756666696369656e7420616c6c6f77616e63650000005f82015250565b5f612d6e601d83611e21565b9150612d7982612d3a565b602082019050919050565b5f6020820190508181035f830152612d9b81612d62565b905091905056fea2646970667358221220687d8dbe379f1ab96102256e5d325781375b0162e837736a2df95dcb110187f164736f6c63430008140033",
  "immutableReferences": {
    "1553": [
      {
        "length": 32,
        "start": 2798
      }
    ]
  },
  "source": "// contracts/SeventFinanceV2\r\n// SPDX-License-Identifier: MIT\r\npragma solidity ^0.8.0;\r\n\r\nimport \"@openzeppelin/contracts/token/ERC20/ERC20.sol\";\r\nimport \"@openzeppelin/contracts/access/Ownable.sol\";\r\nimport \"@openzeppelin/contracts/security/Pausable.sol\";\r\nimport \"@openzeppelin/contracts/utils/math/SafeMath.sol\";\r\nimport \"./ISeventFinance.sol\";\r\nimport \"./Proxy.sol\";\r\n\r\ncontract SeventFinanceV2 is Proxy, ERC20, Ownable, Pausable {\r\n    using SafeMath for uint256;\r\n    uint256 public constant INITIAL_SUPPLY = 400000000 * 10**18;\r\n    uint256 public immutable MINT_AMOUNT = 100 * 10**18;\r\n\r\n    // Vesting variables\r\n    address public vestingBeneficiary;\r\n    uint256 public vestingStart;\r\n    uint256 public vestingDuration;\r\n    uint256 public vestingCliff;\r\n\r\n    // Airdrop variables\r\n    address public instagramAccount;\r\n    address public accountX;\r\n\r\n    event TokenBurned(address indexed burner, uint256 amount);\r\n    event TokenMinted(address indexed minter, uint256 amount);\r\n    event VestingSetup(address indexed beneficiary, uint256 start, uint256 cliff, uint256 duration);\r\n    event AirdropSet(address indexed instagramAccount, address indexed accountX);\r\n\r\n    constructor(\r\n        address _implementation,\r\n        address _vestingBeneficiary,\r\n        uint256 _vestingStart,\r\n        uint256 _vestingCliff,\r\n        uint256 _vestingDuration,\r\n        address _instagramAccount,\r\n        address _accountX\r\n    ) Proxy(_implementation) ERC20(\"SeventFinanceV2\", \"Svt\") {\r\n        _mint(msg.sender, INITIAL_SUPPLY);\r\n\r\n        // Set up vesting\r\n        vestingBeneficiary = _vestingBeneficiary;\r\n        vestingStart = _vestingStart;\r\n        vestingCliff = _vestingCliff;\r\n        vestingDuration = _vestingDuration;\r\n\r\n        // Set up airdrop\r\n        instagramAccount = _instagramAccount;\r\n        accountX = _accountX;\r\n    }\r\n\r\n    function transfer(address recipient, uint256 amount) public virtual override whenNotPaused returns (bool) {\r\n        require(amount <= balanceOf(msg.sender), \"insufficient balance\");\r\n\r\n        // Vesting check\r\n        if (msg.sender == vestingBeneficiary) {\r\n            require(block.timestamp >= vestingStart, \"Vesting has not started yet\");\r\n            uint256 vestedAmount = getVestedAmount();\r\n            require(amount <= vestedAmount, \"Insufficient vested balance\");\r\n        }\r\n\r\n        _transfer(msg.sender, recipient, amount);\r\n        return super.transfer(recipient, amount);\r\n    }\r\n\r\n    function transferFrom(address sender, address recipient, uint256 amount) public virtual whenNotPaused override returns (bool) {\r\n        require(_msgSender() == sender || amount <= allowance(sender, _msgSender()), \"ERC20: transfer amount exceeds allowance\");\r\n\r\n        // Vesting check\r\n        if (sender == vestingBeneficiary) {\r\n            require(block.timestamp >= vestingStart, \"Vesting has not started yet\");\r\n            uint256 vestedAmount = getVestedAmount();\r\n            require(amount <= vestedAmount, \"Insufficient vested balance\");\r\n        }\r\n\r\n        _transfer(sender, recipient, amount);\r\n        if (_msgSender() != sender && allowance(sender, _msgSender()) != type(uint256).max) {\r\n            _approve(sender, _msgSender(), allowance(sender, _msgSender()) - amount);\r\n        }\r\n        return super.transferFrom(sender, recipient, amount);\r\n    }\r\n\r\n    function burn(uint256 amount) public {\r\n        _burn(msg.sender, amount);\r\n        emit TokenBurned(msg.sender, amount);\r\n    }\r\n\r\n    function mint(uint256 amount) public onlyOwner {\r\n        _mint(msg.sender, amount);\r\n        emit TokenMinted(msg.sender, amount);\r\n    }\r\n\r\n    function setupVesting(address beneficiary, uint256 start, uint256 cliff, uint256 duration) public onlyOwner {\r\n        require(beneficiary != address(0), \"Invalid beneficiary address\");\r\n        require(start >= block.timestamp, \"Start time should be in the future\");\r\n        require(cliff >= start, \"Cliff time should be greater than or equal to start time\");\r\n\r\n        vestingBeneficiary = beneficiary;\r\n        vestingStart = start;\r\n        vestingCliff = cliff;\r\n        vestingDuration = duration;\r\n\r\n        emit VestingSetup(beneficiary, start, cliff, duration);\r\n    }\r\n\r\n    function setAirdrop(address _instagramAccount, address _accountX) public onlyOwner {\r\n        require(_instagramAccount != address(0) && _accountX != address(0), \"Invalid airdrop addresses\");\r\n\r\n        instagramAccount = _instagramAccount;\r\n        accountX = _accountX;\r\n\r\n        emit AirdropSet(_instagramAccount, _accountX);\r\n    }\r\n\r\n    function getVestedAmount() public view returns (uint256) {\r\n        if (block.timestamp < vestingCliff) {\r\n            return 0;\r\n        } else if (block.timestamp >= vestingStart.add(vestingDuration)) {\r\n            return balanceOf(vestingBeneficiary);\r\n        } else {\r\n            return balanceOf(vestingBeneficiary).mul(block.timestamp.sub(vestingCliff)).div(vestingDuration);\r\n        }\r\n    }\r\n}\r\n",
  "sourcePath": "D:\\sevenDAO\\MainContract\\contracts\\SeventFinanceV2.sol",
  "compiler": {
    "name": "solc",
    "version": "0.8.20+commit.a1b79de6.Emscripten.clang"
  },
  "schemaVersion": "3.4.14",
  "updatedAt": "2023-08-04T13:50:53.701Z",
  "devdoc": {
    "events": {
      "Approval(address,address,uint256)": {
        "details": "Emitted when the allowance of a `spender` for an `owner` is set by a call to {approve}. `value` is the new allowance."
      },
      "Paused(address)": {
        "details": "Emitted when the pause is triggered by `account`."
      },
      "Transfer(address,address,uint256)": {
        "details": "Emitted when `value` tokens are moved from one account (`from`) to another (`to`). Note that `value` may be zero."
      },
      "Unpaused(address)": {
        "details": "Emitted when the pause is lifted by `account`."
      }
    },
    "kind": "dev",
    "methods": {
      "allowance(address,address)": {
        "details": "See {IERC20-allowance}."
      },
      "approve(address,uint256)": {
        "details": "See {IERC20-approve}. NOTE: If `amount` is the maximum `uint256`, the allowance is not updated on `transferFrom`. This is semantically equivalent to an infinite approval. Requirements: - `spender` cannot be the zero address."
      },
      "balanceOf(address)": {
        "details": "See {IERC20-balanceOf}."
      },
      "decimals()": {
        "details": "Returns the number of decimals used to get its user representation. For example, if `decimals` equals `2`, a balance of `505` tokens should be displayed to a user as `5.05` (`505 / 10 ** 2`). Tokens usually opt for a value of 18, imitating the relationship between Ether and Wei. This is the default value returned by this function, unless it's overridden. NOTE: This information is only used for _display_ purposes: it in no way affects any of the arithmetic of the contract, including {IERC20-balanceOf} and {IERC20-transfer}."
      },
      "decreaseAllowance(address,uint256)": {
        "details": "Atomically decreases the allowance granted to `spender` by the caller. This is an alternative to {approve} that can be used as a mitigation for problems described in {IERC20-approve}. Emits an {Approval} event indicating the updated allowance. Requirements: - `spender` cannot be the zero address. - `spender` must have allowance for the caller of at least `subtractedValue`."
      },
      "increaseAllowance(address,uint256)": {
        "details": "Atomically increases the allowance granted to `spender` by the caller. This is an alternative to {approve} that can be used as a mitigation for problems described in {IERC20-approve}. Emits an {Approval} event indicating the updated allowance. Requirements: - `spender` cannot be the zero address."
      },
      "name()": {
        "details": "Returns the name of the token."
      },
      "owner()": {
        "details": "Returns the address of the current owner."
      },
      "paused()": {
        "details": "Returns true if the contract is paused, and false otherwise."
      },
      "renounceOwnership()": {
        "details": "Leaves the contract without owner. It will not be possible to call `onlyOwner` functions. Can only be called by the current owner. NOTE: Renouncing ownership will leave the contract without an owner, thereby disabling any functionality that is only available to the owner."
      },
      "symbol()": {
        "details": "Returns the symbol of the token, usually a shorter version of the name."
      },
      "totalSupply()": {
        "details": "See {IERC20-totalSupply}."
      },
      "transferOwnership(address)": {
        "details": "Transfers ownership of the contract to a new account (`newOwner`). Can only be called by the current owner."
      }
    },
    "version": 1
  },
  "userdoc": {
    "kind": "user",
    "methods": {},
    "version": 1
  }
}