{
  "contractName": "SeventToken",
  "abi": [
    {
      "inputs": [],
      "stateMutability": "nonpayable",
      "type": "constructor"
    },
    {
      "anonymous": false,
      "inputs": [
        {
          "indexed": true,
          "internalType": "address",
          "name": "owner",
          "type": "address"
        },
        {
          "indexed": true,
          "internalType": "address",
          "name": "spender",
          "type": "address"
        },
        {
          "indexed": false,
          "internalType": "uint256",
          "name": "value",
          "type": "uint256"
        }
      ],
      "name": "Approval",
      "type": "event"
    },
    {
      "anonymous": false,
      "inputs": [
        {
          "indexed": true,
          "internalType": "address",
          "name": "previousOwner",
          "type": "address"
        },
        {
          "indexed": true,
          "internalType": "address",
          "name": "newOwner",
          "type": "address"
        }
      ],
      "name": "OwnershipTransferred",
      "type": "event"
    },
    {
      "anonymous": false,
      "inputs": [
        {
          "indexed": false,
          "internalType": "address",
          "name": "account",
          "type": "address"
        }
      ],
      "name": "Paused",
      "type": "event"
    },
    {
      "anonymous": false,
      "inputs": [
        {
          "indexed": true,
          "internalType": "address",
          "name": "burner",
          "type": "address"
        },
        {
          "indexed": false,
          "internalType": "uint256",
          "name": "amount",
          "type": "uint256"
        }
      ],
      "name": "TokenBurned",
      "type": "event"
    },
    {
      "anonymous": false,
      "inputs": [
        {
          "indexed": true,
          "internalType": "address",
          "name": "minter",
          "type": "address"
        },
        {
          "indexed": false,
          "internalType": "uint256",
          "name": "amount",
          "type": "uint256"
        }
      ],
      "name": "TokenMinted",
      "type": "event"
    },
    {
      "anonymous": false,
      "inputs": [
        {
          "indexed": true,
          "internalType": "address",
          "name": "from",
          "type": "address"
        },
        {
          "indexed": true,
          "internalType": "address",
          "name": "to",
          "type": "address"
        },
        {
          "indexed": false,
          "internalType": "uint256",
          "name": "value",
          "type": "uint256"
        }
      ],
      "name": "Transfer",
      "type": "event"
    },
    {
      "anonymous": false,
      "inputs": [
        {
          "indexed": false,
          "internalType": "address",
          "name": "account",
          "type": "address"
        }
      ],
      "name": "Unpaused",
      "type": "event"
    },
    {
      "inputs": [],
      "name": "INITIAL_SUPPLY",
      "outputs": [
        {
          "internalType": "uint256",
          "name": "",
          "type": "uint256"
        }
      ],
      "stateMutability": "view",
      "type": "function"
    },
    {
      "inputs": [],
      "name": "MINT_AMOUNT",
      "outputs": [
        {
          "internalType": "uint256",
          "name": "",
          "type": "uint256"
        }
      ],
      "stateMutability": "view",
      "type": "function"
    },
    {
      "inputs": [
        {
          "internalType": "address",
          "name": "owner",
          "type": "address"
        },
        {
          "internalType": "address",
          "name": "spender",
          "type": "address"
        }
      ],
      "name": "allowance",
      "outputs": [
        {
          "internalType": "uint256",
          "name": "",
          "type": "uint256"
        }
      ],
      "stateMutability": "view",
      "type": "function"
    },
    {
      "inputs": [
        {
          "internalType": "address",
          "name": "spender",
          "type": "address"
        },
        {
          "internalType": "uint256",
          "name": "amount",
          "type": "uint256"
        }
      ],
      "name": "approve",
      "outputs": [
        {
          "internalType": "bool",
          "name": "",
          "type": "bool"
        }
      ],
      "stateMutability": "nonpayable",
      "type": "function"
    },
    {
      "inputs": [
        {
          "internalType": "address",
          "name": "account",
          "type": "address"
        }
      ],
      "name": "balanceOf",
      "outputs": [
        {
          "internalType": "uint256",
          "name": "",
          "type": "uint256"
        }
      ],
      "stateMutability": "view",
      "type": "function"
    },
    {
      "inputs": [],
      "name": "decimals",
      "outputs": [
        {
          "internalType": "uint8",
          "name": "",
          "type": "uint8"
        }
      ],
      "stateMutability": "view",
      "type": "function"
    },
    {
      "inputs": [
        {
          "internalType": "address",
          "name": "spender",
          "type": "address"
        },
        {
          "internalType": "uint256",
          "name": "subtractedValue",
          "type": "uint256"
        }
      ],
      "name": "decreaseAllowance",
      "outputs": [
        {
          "internalType": "bool",
          "name": "",
          "type": "bool"
        }
      ],
      "stateMutability": "nonpayable",
      "type": "function"
    },
    {
      "inputs": [
        {
          "internalType": "address",
          "name": "spender",
          "type": "address"
        },
        {
          "internalType": "uint256",
          "name": "addedValue",
          "type": "uint256"
        }
      ],
      "name": "increaseAllowance",
      "outputs": [
        {
          "internalType": "bool",
          "name": "",
          "type": "bool"
        }
      ],
      "stateMutability": "nonpayable",
      "type": "function"
    },
    {
      "inputs": [],
      "name": "name",
      "outputs": [
        {
          "internalType": "string",
          "name": "",
          "type": "string"
        }
      ],
      "stateMutability": "view",
      "type": "function"
    },
    {
      "inputs": [],
      "name": "owner",
      "outputs": [
        {
          "internalType": "address",
          "name": "",
          "type": "address"
        }
      ],
      "stateMutability": "view",
      "type": "function"
    },
    {
      "inputs": [],
      "name": "paused",
      "outputs": [
        {
          "internalType": "bool",
          "name": "",
          "type": "bool"
        }
      ],
      "stateMutability": "view",
      "type": "function"
    },
    {
      "inputs": [],
      "name": "renounceOwnership",
      "outputs": [],
      "stateMutability": "nonpayable",
      "type": "function"
    },
    {
      "inputs": [],
      "name": "symbol",
      "outputs": [
        {
          "internalType": "string",
          "name": "",
          "type": "string"
        }
      ],
      "stateMutability": "view",
      "type": "function"
    },
    {
      "inputs": [],
      "name": "totalSupply",
      "outputs": [
        {
          "internalType": "uint256",
          "name": "",
          "type": "uint256"
        }
      ],
      "stateMutability": "view",
      "type": "function"
    },
    {
      "inputs": [
        {
          "internalType": "address",
          "name": "newOwner",
          "type": "address"
        }
      ],
      "name": "transferOwnership",
      "outputs": [],
      "stateMutability": "nonpayable",
      "type": "function"
    },
    {
      "inputs": [
        {
          "internalType": "address",
          "name": "recipient",
          "type": "address"
        },
        {
          "internalType": "uint256",
          "name": "amount",
          "type": "uint256"
        }
      ],
      "name": "transfer",
      "outputs": [
        {
          "internalType": "bool",
          "name": "",
          "type": "bool"
        }
      ],
      "stateMutability": "nonpayable",
      "type": "function"
    },
    {
      "inputs": [
        {
          "internalType": "address",
          "name": "sender",
          "type": "address"
        },
        {
          "internalType": "address",
          "name": "recipient",
          "type": "address"
        },
        {
          "internalType": "uint256",
          "name": "amount",
          "type": "uint256"
        }
      ],
      "name": "transferFrom",
      "outputs": [
        {
          "internalType": "bool",
          "name": "",
          "type": "bool"
        }
      ],
      "stateMutability": "nonpayable",
      "type": "function"
    },
    {
      "inputs": [
        {
          "internalType": "uint256",
          "name": "amount",
          "type": "uint256"
        }
      ],
      "name": "burn",
      "outputs": [],
      "stateMutability": "nonpayable",
      "type": "function"
    },
    {
      "inputs": [
        {
          "internalType": "uint256",
          "name": "amount",
          "type": "uint256"
        }
      ],
      "name": "mint",
      "outputs": [],
      "stateMutability": "nonpayable",
      "type": "function"
    }
  ],
  "bytecode": "0x608060405268056bc75e2d631000006006553480156200001d575f80fd5b506040518060400160405280600b81526020017f536576656e74546f6b656e0000000000000000000000000000000000000000008152506040518060400160405280600381526020017f537674000000000000000000000000000000000000000000000000000000000081525081600390816200009b9190620005ab565b508060049081620000ad9190620005ab565b505050620000d0620000c46200010e60201b60201c565b6200011560201b60201c565b5f600560146101000a81548160ff02191690831515021790555062000108336b014adf4b7320334b90000000620001d860201b60201c565b620007a0565b5f33905090565b5f60055f9054906101000a900473ffffffffffffffffffffffffffffffffffffffff1690508160055f6101000a81548173ffffffffffffffffffffffffffffffffffffffff021916908373ffffffffffffffffffffffffffffffffffffffff1602179055508173ffffffffffffffffffffffffffffffffffffffff168173ffffffffffffffffffffffffffffffffffffffff167f8be0079c531659141344cd1fd0a4f28419497f9722a3daafe3b4186f6b6457e060405160405180910390a35050565b5f73ffffffffffffffffffffffffffffffffffffffff168273ffffffffffffffffffffffffffffffffffffffff160362000249576040517f08c379a00000000000000000000000000000000000000000000000000000000081526004016200024090620006ed565b60405180910390fd5b6200025c5f83836200033d60201b60201c565b8060025f8282546200026f91906200073a565b92505081905550805f808473ffffffffffffffffffffffffffffffffffffffff1673ffffffffffffffffffffffffffffffffffffffff1681526020019081526020015f205f82825401925050819055508173ffffffffffffffffffffffffffffffffffffffff165f73ffffffffffffffffffffffffffffffffffffffff167fddf252ad1be2c89b69c2b068fc378daa952ba7f163c4a11628f55a4df523b3ef836040516200031e919062000785565b60405180910390a3620003395f83836200034260201b60201c565b5050565b505050565b505050565b5f81519050919050565b7f4e487b71000000000000000000000000000000000000000000000000000000005f52604160045260245ffd5b7f4e487b71000000000000000000000000000000000000000000000000000000005f52602260045260245ffd5b5f6002820490506001821680620003c357607f821691505b602082108103620003d957620003d86200037e565b5b50919050565b5f819050815f5260205f209050919050565b5f6020601f8301049050919050565b5f82821b905092915050565b5f600883026200043d7fffffffffffffffffffffffffffffffffffffffffffffffffffffffffffffffff8262000400565b62000449868362000400565b95508019841693508086168417925050509392505050565b5f819050919050565b5f819050919050565b5f620004936200048d620004878462000461565b6200046a565b62000461565b9050919050565b5f819050919050565b620004ae8362000473565b620004c6620004bd826200049a565b8484546200040c565b825550505050565b5f90565b620004dc620004ce565b620004e9818484620004a3565b505050565b5b818110156200051057620005045f82620004d2565b600181019050620004ef565b5050565b601f8211156200055f576200052981620003df565b6200053484620003f1565b8101602085101562000544578190505b6200055c6200055385620003f1565b830182620004ee565b50505b505050565b5f82821c905092915050565b5f620005815f198460080262000564565b1980831691505092915050565b5f6200059b838362000570565b9150826002028217905092915050565b620005b68262000347565b67ffffffffffffffff811115620005d257620005d162000351565b5b620005de8254620003ab565b620005eb82828562000514565b5f60209050601f83116001811462000621575f84156200060c578287015190505b6200061885826200058e565b86555062000687565b601f1984166200063186620003df565b5f5b828110156200065a5784890151825560018201915060208501945060208101905062000633565b868310156200067a578489015162000676601f89168262000570565b8355505b6001600288020188555050505b505050505050565b5f82825260208201905092915050565b7f45524332303a206d696e7420746f20746865207a65726f2061646472657373005f82015250565b5f620006d5601f836200068f565b9150620006e2826200069f565b602082019050919050565b5f6020820190508181035f8301526200070681620006c7565b9050919050565b7f4e487b71000000000000000000000000000000000000000000000000000000005f52601160045260245ffd5b5f620007468262000461565b9150620007538362000461565b92508282019050808211156200076e576200076d6200070d565b5b92915050565b6200077f8162000461565b82525050565b5f6020820190506200079a5f83018462000774565b92915050565b611f7680620007ae5f395ff3fe608060405234801561000f575f80fd5b506004361061011f575f3560e01c80635c975abb116100ab578063a0712d681161006f578063a0712d68146102f9578063a457c2d714610315578063a9059cbb14610345578063dd62ed3e14610375578063f2fde38b146103a55761011f565b80635c975abb1461026557806370a0823114610283578063715018a6146102b35780638da5cb5b146102bd57806395d89b41146102db5761011f565b80632ff2e9dc116100f25780632ff2e9dc146101bf578063313ce567146101dd57806339509351146101fb57806342966c681461022b5780635427789c146102475761011f565b806306fdde0314610123578063095ea7b31461014157806318160ddd1461017157806323b872dd1461018f575b5f80fd5b61012b6103c1565b6040516101389190611432565b60405180910390f35b61015b600480360381019061015691906114e3565b610451565b604051610168919061153b565b60405180910390f35b610179610473565b6040516101869190611563565b60405180910390f35b6101a960048036038101906101a4919061157c565b61047c565b6040516101b6919061153b565b60405180910390f35b6101c76105cf565b6040516101d49190611563565b60405180910390f35b6101e56105df565b6040516101f291906115e7565b60405180910390f35b610215600480360381019061021091906114e3565b6105e7565b604051610222919061153b565b60405180910390f35b61024560048036038101906102409190611600565b61061d565b005b61024f610678565b60405161025c9190611563565b60405180910390f35b61026d61067e565b60405161027a919061153b565b60405180910390f35b61029d6004803603810190610298919061162b565b610694565b6040516102aa9190611563565b60405180910390f35b6102bb6106d9565b005b6102c56106ec565b6040516102d29190611665565b60405180910390f35b6102e3610714565b6040516102f09190611432565b60405180910390f35b610313600480360381019061030e9190611600565b6107a4565b005b61032f600480360381019061032a91906114e3565b610807565b60405161033c919061153b565b60405180910390f35b61035f600480360381019061035a91906114e3565b61087c565b60405161036c919061153b565b60405180910390f35b61038f600480360381019061038a919061167e565b6108ed565b60405161039c9190611563565b60405180910390f35b6103bf60048036038101906103ba919061162b565b61096f565b005b6060600380546103d0906116e9565b80601f01602080910402602001604051908101604052809291908181526020018280546103fc906116e9565b80156104475780601f1061041e57610100808354040283529160200191610447565b820191905f5260205f20905b81548152906001019060200180831161042a57829003601f168201915b5050505050905090565b5f8061045b6109f1565b90506104688185856109f8565b600191505092915050565b5f600254905090565b5f610485610bbb565b8373ffffffffffffffffffffffffffffffffffffffff166104a46109f1565b73ffffffffffffffffffffffffffffffffffffffff1614806104d657506104d2846104cd6109f1565b6108ed565b8211155b610515576040517f08c379a000000000000000000000000000000000000000000000000000000000815260040161050c90611789565b60405180910390fd5b8373ffffffffffffffffffffffffffffffffffffffff166105346109f1565b73ffffffffffffffffffffffffffffffffffffffff161415801561058857507fffffffffffffffffffffffffffffffffffffffffffffffffffffffffffffffff610585856105806109f1565b6108ed565b14155b156105bb576105ba846105996109f1565b846105ab886105a66109f1565b6108ed565b6105b591906117d4565b6109f8565b5b6105c6848484610c05565b90509392505050565b6b014adf4b7320334b9000000081565b5f6012905090565b5f806105f16109f1565b905061061281858561060385896108ed565b61060d9190611807565b6109f8565b600191505092915050565b6106273382610c33565b3373ffffffffffffffffffffffffffffffffffffffff167f1af5163f80e79b5e554f61e1d052084d3a3fe1166e42a265798c4e2ddce8ffa28260405161066d9190611563565b60405180910390a250565b60065481565b5f600560149054906101000a900460ff16905090565b5f805f8373ffffffffffffffffffffffffffffffffffffffff1673ffffffffffffffffffffffffffffffffffffffff1681526020019081526020015f20549050919050565b6106e1610df6565b6106ea5f610e74565b565b5f60055f9054906101000a900473ffffffffffffffffffffffffffffffffffffffff16905090565b606060048054610723906116e9565b80601f016020809104026020016040519081016040528092919081815260200182805461074f906116e9565b801561079a5780601f106107715761010080835404028352916020019161079a565b820191905f5260205f20905b81548152906001019060200180831161077d57829003601f168201915b5050505050905090565b6107ac610df6565b6107b63382610f37565b3373ffffffffffffffffffffffffffffffffffffffff167fb9144c96c86541f6fa89c9f2f02495cccf4b08cd6643e26d34ee00aa586558a8826040516107fc9190611563565b60405180910390a250565b5f806108116109f1565b90505f61081e82866108ed565b905083811015610863576040517f08c379a000000000000000000000000000000000000000000000000000000000815260040161085a906118aa565b60405180910390fd5b61087082868684036109f8565b60019250505092915050565b5f610885610bbb565b61088e33610694565b8211156108d0576040517f08c379a00000000000000000000000000000000000000000000000000000000081526004016108c790611912565b60405180910390fd5b6108db338484611085565b6108e583836112f1565b905092915050565b5f60015f8473ffffffffffffffffffffffffffffffffffffffff1673ffffffffffffffffffffffffffffffffffffffff1681526020019081526020015f205f8373ffffffffffffffffffffffffffffffffffffffff1673ffffffffffffffffffffffffffffffffffffffff1681526020019081526020015f2054905092915050565b610977610df6565b5f73ffffffffffffffffffffffffffffffffffffffff168173ffffffffffffffffffffffffffffffffffffffff16036109e5576040517f08c379a00000000000000000000000000000000000000000000000000000000081526004016109dc906119a0565b60405180910390fd5b6109ee81610e74565b50565b5f33905090565b5f73ffffffffffffffffffffffffffffffffffffffff168373ffffffffffffffffffffffffffffffffffffffff1603610a66576040517f08c379a0000000000000000000000000000000000000000000000000000000008152600401610a5d90611a2e565b60405180910390fd5b5f73ffffffffffffffffffffffffffffffffffffffff168273ffffffffffffffffffffffffffffffffffffffff1603610ad4576040517f08c379a0000000000000000000000000000000000000000000000000000000008152600401610acb90611abc565b60405180910390fd5b8060015f8573ffffffffffffffffffffffffffffffffffffffff1673ffffffffffffffffffffffffffffffffffffffff1681526020019081526020015f205f8473ffffffffffffffffffffffffffffffffffffffff1673ffffffffffffffffffffffffffffffffffffffff1681526020019081526020015f20819055508173ffffffffffffffffffffffffffffffffffffffff168373ffffffffffffffffffffffffffffffffffffffff167f8c5be1e5ebec7d5bd14f71427d1e84f3dd0314c0f7b2291e5b200ac8c7c3b92583604051610bae9190611563565b60405180910390a3505050565b610bc361067e565b15610c03576040517f08c379a0000000000000000000000000000000000000000000000000000000008152600401610bfa90611b24565b60405180910390fd5b565b5f80610c0f6109f1565b9050610c1c858285611313565b610c27858585611085565b60019150509392505050565b5f73ffffffffffffffffffffffffffffffffffffffff168273ffffffffffffffffffffffffffffffffffffffff1603610ca1576040517f08c379a0000000000000000000000000000000000000000000000000000000008152600401610c9890611bb2565b60405180910390fd5b610cac825f8361139e565b5f805f8473ffffffffffffffffffffffffffffffffffffffff1673ffffffffffffffffffffffffffffffffffffffff1681526020019081526020015f2054905081811015610d2f576040517f08c379a0000000000000000000000000000000000000000000000000000000008152600401610d2690611c40565b60405180910390fd5b8181035f808573ffffffffffffffffffffffffffffffffffffffff1673ffffffffffffffffffffffffffffffffffffffff1681526020019081526020015f20819055508160025f82825403925050819055505f73ffffffffffffffffffffffffffffffffffffffff168373ffffffffffffffffffffffffffffffffffffffff167fddf252ad1be2c89b69c2b068fc378daa952ba7f163c4a11628f55a4df523b3ef84604051610dde9190611563565b60405180910390a3610df1835f846113a3565b505050565b610dfe6109f1565b73ffffffffffffffffffffffffffffffffffffffff16610e1c6106ec565b73ffffffffffffffffffffffffffffffffffffffff1614610e72576040517f08c379a0000000000000000000000000000000000000000000000000000000008152600401610e6990611ca8565b60405180910390fd5b565b5f60055f9054906101000a900473ffffffffffffffffffffffffffffffffffffffff1690508160055f6101000a81548173ffffffffffffffffffffffffffffffffffffffff021916908373ffffffffffffffffffffffffffffffffffffffff1602179055508173ffffffffffffffffffffffffffffffffffffffff168173ffffffffffffffffffffffffffffffffffffffff167f8be0079c531659141344cd1fd0a4f28419497f9722a3daafe3b4186f6b6457e060405160405180910390a35050565b5f73ffffffffffffffffffffffffffffffffffffffff168273ffffffffffffffffffffffffffffffffffffffff1603610fa5576040517f08c379a0000000000000000000000000000000000000000000000000000000008152600401610f9c90611d10565b60405180910390fd5b610fb05f838361139e565b8060025f828254610fc19190611807565b92505081905550805f808473ffffffffffffffffffffffffffffffffffffffff1673ffffffffffffffffffffffffffffffffffffffff1681526020019081526020015f205f82825401925050819055508173ffffffffffffffffffffffffffffffffffffffff165f73ffffffffffffffffffffffffffffffffffffffff167fddf252ad1be2c89b69c2b068fc378daa952ba7f163c4a11628f55a4df523b3ef8360405161106e9190611563565b60405180910390a36110815f83836113a3565b5050565b5f73ffffffffffffffffffffffffffffffffffffffff168373ffffffffffffffffffffffffffffffffffffffff16036110f3576040517f08c379a00000000000000000000000000000000000000000000000000000000081526004016110ea90611d9e565b60405180910390fd5b5f73ffffffffffffffffffffffffffffffffffffffff168273ffffffffffffffffffffffffffffffffffffffff1603611161576040517f08c379a000000000000000000000000000000000000000000000000000000000815260040161115890611e2c565b60405180910390fd5b61116c83838361139e565b5f805f8573ffffffffffffffffffffffffffffffffffffffff1673ffffffffffffffffffffffffffffffffffffffff1681526020019081526020015f20549050818110156111ef576040517f08c379a00000000000000000000000000000000000000000000000000000000081526004016111e690611eba565b60405180910390fd5b8181035f808673ffffffffffffffffffffffffffffffffffffffff1673ffffffffffffffffffffffffffffffffffffffff1681526020019081526020015f2081905550815f808573ffffffffffffffffffffffffffffffffffffffff1673ffffffffffffffffffffffffffffffffffffffff1681526020019081526020015f205f82825401925050819055508273ffffffffffffffffffffffffffffffffffffffff168473ffffffffffffffffffffffffffffffffffffffff167fddf252ad1be2c89b69c2b068fc378daa952ba7f163c4a11628f55a4df523b3ef846040516112d89190611563565b60405180910390a36112eb8484846113a3565b50505050565b5f806112fb6109f1565b9050611308818585611085565b600191505092915050565b5f61131e84846108ed565b90507fffffffffffffffffffffffffffffffffffffffffffffffffffffffffffffffff8114611398578181101561138a576040517f08c379a000000000000000000000000000000000000000000000000000000000815260040161138190611f22565b60405180910390fd5b61139784848484036109f8565b5b50505050565b505050565b505050565b5f81519050919050565b5f82825260208201905092915050565b5f5b838110156113df5780820151818401526020810190506113c4565b5f8484015250505050565b5f601f19601f8301169050919050565b5f611404826113a8565b61140e81856113b2565b935061141e8185602086016113c2565b611427816113ea565b840191505092915050565b5f6020820190508181035f83015261144a81846113fa565b905092915050565b5f80fd5b5f73ffffffffffffffffffffffffffffffffffffffff82169050919050565b5f61147f82611456565b9050919050565b61148f81611475565b8114611499575f80fd5b50565b5f813590506114aa81611486565b92915050565b5f819050919050565b6114c2816114b0565b81146114cc575f80fd5b50565b5f813590506114dd816114b9565b92915050565b5f80604083850312156114f9576114f8611452565b5b5f6115068582860161149c565b9250506020611517858286016114cf565b9150509250929050565b5f8115159050919050565b61153581611521565b82525050565b5f60208201905061154e5f83018461152c565b92915050565b61155d816114b0565b82525050565b5f6020820190506115765f830184611554565b92915050565b5f805f6060848603121561159357611592611452565b5b5f6115a08682870161149c565b93505060206115b18682870161149c565b92505060406115c2868287016114cf565b9150509250925092565b5f60ff82169050919050565b6115e1816115cc565b82525050565b5f6020820190506115fa5f8301846115d8565b92915050565b5f6020828403121561161557611614611452565b5b5f611622848285016114cf565b91505092915050565b5f602082840312156116405761163f611452565b5b5f61164d8482850161149c565b91505092915050565b61165f81611475565b82525050565b5f6020820190506116785f830184611656565b92915050565b5f806040838503121561169457611693611452565b5b5f6116a18582860161149c565b92505060206116b28582860161149c565b9150509250929050565b7f4e487b71000000000000000000000000000000000000000000000000000000005f52602260045260245ffd5b5f600282049050600182168061170057607f821691505b602082108103611713576117126116bc565b5b50919050565b7f45524332303a207472616e7366657220616d6f756e74206578636565647320615f8201527f6c6c6f77616e6365000000000000000000000000000000000000000000000000602082015250565b5f6117736028836113b2565b915061177e82611719565b604082019050919050565b5f6020820190508181035f8301526117a081611767565b9050919050565b7f4e487b71000000000000000000000000000000000000000000000000000000005f52601160045260245ffd5b5f6117de826114b0565b91506117e9836114b0565b9250828203905081811115611801576118006117a7565b5b92915050565b5f611811826114b0565b915061181c836114b0565b9250828201905080821115611834576118336117a7565b5b92915050565b7f45524332303a2064656372656173656420616c6c6f77616e63652062656c6f775f8201527f207a65726f000000000000000000000000000000000000000000000000000000602082015250565b5f6118946025836113b2565b915061189f8261183a565b604082019050919050565b5f6020820190508181035f8301526118c181611888565b9050919050565b7f696e73756666696369656e742062616c616e63650000000000000000000000005f82015250565b5f6118fc6014836113b2565b9150611907826118c8565b602082019050919050565b5f6020820190508181035f830152611929816118f0565b9050919050565b7f4f776e61626c653a206e6577206f776e657220697320746865207a65726f20615f8201527f6464726573730000000000000000000000000000000000000000000000000000602082015250565b5f61198a6026836113b2565b915061199582611930565b604082019050919050565b5f6020820190508181035f8301526119b78161197e565b9050919050565b7f45524332303a20617070726f76652066726f6d20746865207a65726f206164645f8201527f7265737300000000000000000000000000000000000000000000000000000000602082015250565b5f611a186024836113b2565b9150611a23826119be565b604082019050919050565b5f6020820190508181035f830152611a4581611a0c565b9050919050565b7f45524332303a20617070726f766520746f20746865207a65726f2061646472655f8201527f7373000000000000000000000000000000000000000000000000000000000000602082015250565b5f611aa66022836113b2565b9150611ab182611a4c565b604082019050919050565b5f6020820190508181035f830152611ad381611a9a565b9050919050565b7f5061757361626c653a20706175736564000000000000000000000000000000005f82015250565b5f611b0e6010836113b2565b9150611b1982611ada565b602082019050919050565b5f6020820190508181035f830152611b3b81611b02565b9050919050565b7f45524332303a206275726e2066726f6d20746865207a65726f206164647265735f8201527f7300000000000000000000000000000000000000000000000000000000000000602082015250565b5f611b9c6021836113b2565b9150611ba782611b42565b604082019050919050565b5f6020820190508181035f830152611bc981611b90565b9050919050565b7f45524332303a206275726e20616d6f756e7420657863656564732062616c616e5f8201527f6365000000000000000000000000000000000000000000000000000000000000602082015250565b5f611c2a6022836113b2565b9150611c3582611bd0565b604082019050919050565b5f6020820190508181035f830152611c5781611c1e565b9050919050565b7f4f776e61626c653a2063616c6c6572206973206e6f7420746865206f776e65725f82015250565b5f611c926020836113b2565b9150611c9d82611c5e565b602082019050919050565b5f6020820190508181035f830152611cbf81611c86565b9050919050565b7f45524332303a206d696e7420746f20746865207a65726f2061646472657373005f82015250565b5f611cfa601f836113b2565b9150611d0582611cc6565b602082019050919050565b5f6020820190508181035f830152611d2781611cee565b9050919050565b7f45524332303a207472616e736665722066726f6d20746865207a65726f2061645f8201527f6472657373000000000000000000000000000000000000000000000000000000602082015250565b5f611d886025836113b2565b9150611d9382611d2e565b604082019050919050565b5f6020820190508181035f830152611db581611d7c565b9050919050565b7f45524332303a207472616e7366657220746f20746865207a65726f20616464725f8201527f6573730000000000000000000000000000000000000000000000000000000000602082015250565b5f611e166023836113b2565b9150611e2182611dbc565b604082019050919050565b5f6020820190508181035f830152611e4381611e0a565b9050919050565b7f45524332303a207472616e7366657220616d6f756e74206578636565647320625f8201527f616c616e63650000000000000000000000000000000000000000000000000000602082015250565b5f611ea46026836113b2565b9150611eaf82611e4a565b604082019050919050565b5f6020820190508181035f830152611ed181611e98565b9050919050565b7f45524332303a20696e73756666696369656e7420616c6c6f77616e63650000005f82015250565b5f611f0c601d836113b2565b9150611f1782611ed8565b602082019050919050565b5f6020820190508181035f830152611f3981611f00565b905091905056fea2646970667358221220b39e698c71ca3cdd926152e4d656916284176f4a82766062b0498d33afebbcf064736f6c63430008140033",
  "immutableReferences": {},
  "source": "// contracts/SeventToken.sol\r\n//SPDX-License-Identifier: MIT\r\n\r\nimport \"@openzeppelin/contracts/token/ERC20/ERC20.sol\";\r\nimport \"@openzeppelin/contracts/access/Ownable.sol\";\r\nimport \"@openzeppelin/contracts/security/Pausable.sol\";\r\nimport \"@openzeppelin/contracts/utils/math/SafeMath.sol\";\r\nimport \"./ISeventToken.sol\";\r\n\r\npragma solidity ^0.8.19;\r\n\r\ncontract SeventToken is ERC20, Ownable, Pausable{\r\n\r\n    using SafeMath for uint256;\r\n    uint256 public constant INITIAL_SUPPLY = 400000000 * 10**18;\r\n    uint256 public MINT_AMOUNT = 100 * 10**18;\r\n\r\n    event TokenBurned(address indexed burner, uint256 amount);\r\n    event TokenMinted(address indexed minter, uint256 amount);\r\n\r\n    constructor() ERC20(\"SeventToken\", \"Svt\") {\r\n        _mint(msg.sender, INITIAL_SUPPLY);\r\n    }\r\n\r\n    function transfer(address recipient, uint256 amount) public virtual override whenNotPaused returns(bool) {\r\n        require(amount <= balanceOf(msg.sender), \"insufficient balance\");\r\n\r\n        _transfer(msg.sender, recipient, amount);\r\n        return super.transfer(recipient, amount);\r\n    }\r\n\r\n    function transferFrom(address sender, address recipient, uint256 amount) public virtual whenNotPaused override returns (bool) {\r\n        require(_msgSender() == sender || amount <= allowance (sender, _msgSender()), \"ERC20: transfer amount exceeds allowance\");\r\n\r\n        if (_msgSender() != sender && allowance(sender, _msgSender()) != type(uint256).max) {\r\n            _approve(sender, _msgSender(), allowance(sender, _msgSender())- amount);\r\n        }\r\n        return super.transferFrom(sender, recipient, amount);\r\n    }\r\n\r\n    function burn(uint256 amount) public {\r\n        _burn(msg.sender, amount);\r\n        emit TokenBurned(msg.sender, amount);\r\n    }\r\n\r\n    function mint(uint256 amount) public onlyOwner{\r\n        _mint(msg.sender, amount);\r\n        emit TokenMinted(msg.sender, amount);\r\n    }\r\n\r\n}",
  "sourcePath": "D:\\sevenDAO\\MainContract\\contracts\\SeventToken.sol",
  "compiler": {
    "name": "solc",
    "version": "0.8.20+commit.a1b79de6.Emscripten.clang"
  },
  "schemaVersion": "3.4.14",
  "updatedAt": "2023-08-03T13:19:56.329Z",
  "devdoc": {
    "events": {
      "Approval(address,address,uint256)": {
        "details": "Emitted when the allowance of a `spender` for an `owner` is set by a call to {approve}. `value` is the new allowance."
      },
      "Paused(address)": {
        "details": "Emitted when the pause is triggered by `account`."
      },
      "Transfer(address,address,uint256)": {
        "details": "Emitted when `value` tokens are moved from one account (`from`) to another (`to`). Note that `value` may be zero."
      },
      "Unpaused(address)": {
        "details": "Emitted when the pause is lifted by `account`."
      }
    },
    "kind": "dev",
    "methods": {
      "allowance(address,address)": {
        "details": "See {IERC20-allowance}."
      },
      "approve(address,uint256)": {
        "details": "See {IERC20-approve}. NOTE: If `amount` is the maximum `uint256`, the allowance is not updated on `transferFrom`. This is semantically equivalent to an infinite approval. Requirements: - `spender` cannot be the zero address."
      },
      "balanceOf(address)": {
        "details": "See {IERC20-balanceOf}."
      },
      "decimals()": {
        "details": "Returns the number of decimals used to get its user representation. For example, if `decimals` equals `2`, a balance of `505` tokens should be displayed to a user as `5.05` (`505 / 10 ** 2`). Tokens usually opt for a value of 18, imitating the relationship between Ether and Wei. This is the default value returned by this function, unless it's overridden. NOTE: This information is only used for _display_ purposes: it in no way affects any of the arithmetic of the contract, including {IERC20-balanceOf} and {IERC20-transfer}."
      },
      "decreaseAllowance(address,uint256)": {
        "details": "Atomically decreases the allowance granted to `spender` by the caller. This is an alternative to {approve} that can be used as a mitigation for problems described in {IERC20-approve}. Emits an {Approval} event indicating the updated allowance. Requirements: - `spender` cannot be the zero address. - `spender` must have allowance for the caller of at least `subtractedValue`."
      },
      "increaseAllowance(address,uint256)": {
        "details": "Atomically increases the allowance granted to `spender` by the caller. This is an alternative to {approve} that can be used as a mitigation for problems described in {IERC20-approve}. Emits an {Approval} event indicating the updated allowance. Requirements: - `spender` cannot be the zero address."
      },
      "name()": {
        "details": "Returns the name of the token."
      },
      "owner()": {
        "details": "Returns the address of the current owner."
      },
      "paused()": {
        "details": "Returns true if the contract is paused, and false otherwise."
      },
      "renounceOwnership()": {
        "details": "Leaves the contract without owner. It will not be possible to call `onlyOwner` functions. Can only be called by the current owner. NOTE: Renouncing ownership will leave the contract without an owner, thereby disabling any functionality that is only available to the owner."
      },
      "symbol()": {
        "details": "Returns the symbol of the token, usually a shorter version of the name."
      },
      "totalSupply()": {
        "details": "See {IERC20-totalSupply}."
      },
      "transferOwnership(address)": {
        "details": "Transfers ownership of the contract to a new account (`newOwner`). Can only be called by the current owner."
      }
    },
    "version": 1
  },
  "userdoc": {
    "kind": "user",
    "methods": {},
    "version": 1
  }
}