{
  "contractName": "SeventFinance",
  "abi": [
    {
      "inputs": [],
      "stateMutability": "nonpayable",
      "type": "constructor"
    },
    {
      "anonymous": false,
      "inputs": [
        {
          "indexed": true,
          "internalType": "address",
          "name": "owner",
          "type": "address"
        },
        {
          "indexed": true,
          "internalType": "address",
          "name": "spender",
          "type": "address"
        },
        {
          "indexed": false,
          "internalType": "uint256",
          "name": "value",
          "type": "uint256"
        }
      ],
      "name": "Approval",
      "type": "event"
    },
    {
      "anonymous": false,
      "inputs": [
        {
          "indexed": true,
          "internalType": "address",
          "name": "previousOwner",
          "type": "address"
        },
        {
          "indexed": true,
          "internalType": "address",
          "name": "newOwner",
          "type": "address"
        }
      ],
      "name": "OwnershipTransferred",
      "type": "event"
    },
    {
      "anonymous": false,
      "inputs": [
        {
          "indexed": false,
          "internalType": "address",
          "name": "account",
          "type": "address"
        }
      ],
      "name": "Paused",
      "type": "event"
    },
    {
      "anonymous": false,
      "inputs": [
        {
          "indexed": true,
          "internalType": "address",
          "name": "burner",
          "type": "address"
        },
        {
          "indexed": false,
          "internalType": "uint256",
          "name": "amount",
          "type": "uint256"
        }
      ],
      "name": "TokenBurned",
      "type": "event"
    },
    {
      "anonymous": false,
      "inputs": [
        {
          "indexed": true,
          "internalType": "address",
          "name": "minter",
          "type": "address"
        },
        {
          "indexed": false,
          "internalType": "uint256",
          "name": "amount",
          "type": "uint256"
        }
      ],
      "name": "TokenMinted",
      "type": "event"
    },
    {
      "anonymous": false,
      "inputs": [
        {
          "indexed": true,
          "internalType": "address",
          "name": "from",
          "type": "address"
        },
        {
          "indexed": true,
          "internalType": "address",
          "name": "to",
          "type": "address"
        },
        {
          "indexed": false,
          "internalType": "uint256",
          "name": "value",
          "type": "uint256"
        }
      ],
      "name": "Transfer",
      "type": "event"
    },
    {
      "anonymous": false,
      "inputs": [
        {
          "indexed": false,
          "internalType": "address",
          "name": "account",
          "type": "address"
        }
      ],
      "name": "Unpaused",
      "type": "event"
    },
    {
      "inputs": [],
      "name": "BURN_ADDRESS",
      "outputs": [
        {
          "internalType": "address",
          "name": "",
          "type": "address"
        }
      ],
      "stateMutability": "view",
      "type": "function"
    },
    {
      "inputs": [],
      "name": "INITIAL_SUPPLY",
      "outputs": [
        {
          "internalType": "uint256",
          "name": "",
          "type": "uint256"
        }
      ],
      "stateMutability": "view",
      "type": "function"
    },
    {
      "inputs": [],
      "name": "MAX_SUPPLY",
      "outputs": [
        {
          "internalType": "uint256",
          "name": "",
          "type": "uint256"
        }
      ],
      "stateMutability": "view",
      "type": "function"
    },
    {
      "inputs": [],
      "name": "MINT_AMOUNT",
      "outputs": [
        {
          "internalType": "uint256",
          "name": "",
          "type": "uint256"
        }
      ],
      "stateMutability": "view",
      "type": "function"
    },
    {
      "inputs": [
        {
          "internalType": "address",
          "name": "owner",
          "type": "address"
        },
        {
          "internalType": "address",
          "name": "spender",
          "type": "address"
        }
      ],
      "name": "allowance",
      "outputs": [
        {
          "internalType": "uint256",
          "name": "",
          "type": "uint256"
        }
      ],
      "stateMutability": "view",
      "type": "function"
    },
    {
      "inputs": [
        {
          "internalType": "address",
          "name": "spender",
          "type": "address"
        },
        {
          "internalType": "uint256",
          "name": "amount",
          "type": "uint256"
        }
      ],
      "name": "approve",
      "outputs": [
        {
          "internalType": "bool",
          "name": "",
          "type": "bool"
        }
      ],
      "stateMutability": "nonpayable",
      "type": "function"
    },
    {
      "inputs": [
        {
          "internalType": "address",
          "name": "account",
          "type": "address"
        }
      ],
      "name": "balanceOf",
      "outputs": [
        {
          "internalType": "uint256",
          "name": "",
          "type": "uint256"
        }
      ],
      "stateMutability": "view",
      "type": "function"
    },
    {
      "inputs": [],
      "name": "decimals",
      "outputs": [
        {
          "internalType": "uint8",
          "name": "",
          "type": "uint8"
        }
      ],
      "stateMutability": "view",
      "type": "function"
    },
    {
      "inputs": [
        {
          "internalType": "address",
          "name": "spender",
          "type": "address"
        },
        {
          "internalType": "uint256",
          "name": "subtractedValue",
          "type": "uint256"
        }
      ],
      "name": "decreaseAllowance",
      "outputs": [
        {
          "internalType": "bool",
          "name": "",
          "type": "bool"
        }
      ],
      "stateMutability": "nonpayable",
      "type": "function"
    },
    {
      "inputs": [
        {
          "internalType": "address",
          "name": "spender",
          "type": "address"
        },
        {
          "internalType": "uint256",
          "name": "addedValue",
          "type": "uint256"
        }
      ],
      "name": "increaseAllowance",
      "outputs": [
        {
          "internalType": "bool",
          "name": "",
          "type": "bool"
        }
      ],
      "stateMutability": "nonpayable",
      "type": "function"
    },
    {
      "inputs": [],
      "name": "name",
      "outputs": [
        {
          "internalType": "string",
          "name": "",
          "type": "string"
        }
      ],
      "stateMutability": "view",
      "type": "function"
    },
    {
      "inputs": [],
      "name": "owner",
      "outputs": [
        {
          "internalType": "address",
          "name": "",
          "type": "address"
        }
      ],
      "stateMutability": "view",
      "type": "function"
    },
    {
      "inputs": [],
      "name": "paused",
      "outputs": [
        {
          "internalType": "bool",
          "name": "",
          "type": "bool"
        }
      ],
      "stateMutability": "view",
      "type": "function"
    },
    {
      "inputs": [],
      "name": "renounceOwnership",
      "outputs": [],
      "stateMutability": "nonpayable",
      "type": "function"
    },
    {
      "inputs": [],
      "name": "symbol",
      "outputs": [
        {
          "internalType": "string",
          "name": "",
          "type": "string"
        }
      ],
      "stateMutability": "view",
      "type": "function"
    },
    {
      "inputs": [],
      "name": "totalSupply",
      "outputs": [
        {
          "internalType": "uint256",
          "name": "",
          "type": "uint256"
        }
      ],
      "stateMutability": "view",
      "type": "function"
    },
    {
      "inputs": [
        {
          "internalType": "address",
          "name": "newOwner",
          "type": "address"
        }
      ],
      "name": "transferOwnership",
      "outputs": [],
      "stateMutability": "nonpayable",
      "type": "function"
    },
    {
      "inputs": [
        {
          "internalType": "address",
          "name": "recipient",
          "type": "address"
        },
        {
          "internalType": "uint256",
          "name": "amount",
          "type": "uint256"
        }
      ],
      "name": "transfer",
      "outputs": [
        {
          "internalType": "bool",
          "name": "",
          "type": "bool"
        }
      ],
      "stateMutability": "nonpayable",
      "type": "function"
    },
    {
      "inputs": [
        {
          "internalType": "address",
          "name": "sender",
          "type": "address"
        },
        {
          "internalType": "address",
          "name": "recipient",
          "type": "address"
        },
        {
          "internalType": "uint256",
          "name": "amount",
          "type": "uint256"
        }
      ],
      "name": "transferFrom",
      "outputs": [
        {
          "internalType": "bool",
          "name": "",
          "type": "bool"
        }
      ],
      "stateMutability": "nonpayable",
      "type": "function"
    },
    {
      "inputs": [
        {
          "internalType": "uint256",
          "name": "amount",
          "type": "uint256"
        }
      ],
      "name": "burn",
      "outputs": [],
      "stateMutability": "nonpayable",
      "type": "function"
    },
    {
      "inputs": [
        {
          "internalType": "uint256",
          "name": "amount",
          "type": "uint256"
        }
      ],
      "name": "mint",
      "outputs": [],
      "stateMutability": "nonpayable",
      "type": "function"
    },
    {
      "inputs": [
        {
          "internalType": "uint256",
          "name": "amount",
          "type": "uint256"
        }
      ],
      "name": "burnTokens",
      "outputs": [],
      "stateMutability": "nonpayable",
      "type": "function"
    }
  ],
  "bytecode": "0x60a060405268056bc75e2d6310000060809081525034801562000020575f80fd5b506040518060400160405280600d81526020017f536576656e7446696e616e6365000000000000000000000000000000000000008152506040518060400160405280600681526020017f536576656e74000000000000000000000000000000000000000000000000000081525081600390816200009e9190620005ae565b508060049081620000b09190620005ae565b505050620000d3620000c76200011160201b60201c565b6200011860201b60201c565b5f600560146101000a81548160ff0219169083151502179055506200010b336b014adf4b7320334b90000000620001db60201b60201c565b620007a3565b5f33905090565b5f60055f9054906101000a900473ffffffffffffffffffffffffffffffffffffffff1690508160055f6101000a81548173ffffffffffffffffffffffffffffffffffffffff021916908373ffffffffffffffffffffffffffffffffffffffff1602179055508173ffffffffffffffffffffffffffffffffffffffff168173ffffffffffffffffffffffffffffffffffffffff167f8be0079c531659141344cd1fd0a4f28419497f9722a3daafe3b4186f6b6457e060405160405180910390a35050565b5f73ffffffffffffffffffffffffffffffffffffffff168273ffffffffffffffffffffffffffffffffffffffff16036200024c576040517f08c379a00000000000000000000000000000000000000000000000000000000081526004016200024390620006f0565b60405180910390fd5b6200025f5f83836200034060201b60201c565b8060025f8282546200027291906200073d565b92505081905550805f808473ffffffffffffffffffffffffffffffffffffffff1673ffffffffffffffffffffffffffffffffffffffff1681526020019081526020015f205f82825401925050819055508173ffffffffffffffffffffffffffffffffffffffff165f73ffffffffffffffffffffffffffffffffffffffff167fddf252ad1be2c89b69c2b068fc378daa952ba7f163c4a11628f55a4df523b3ef8360405162000321919062000788565b60405180910390a36200033c5f83836200034560201b60201c565b5050565b505050565b505050565b5f81519050919050565b7f4e487b71000000000000000000000000000000000000000000000000000000005f52604160045260245ffd5b7f4e487b71000000000000000000000000000000000000000000000000000000005f52602260045260245ffd5b5f6002820490506001821680620003c657607f821691505b602082108103620003dc57620003db62000381565b5b50919050565b5f819050815f5260205f209050919050565b5f6020601f8301049050919050565b5f82821b905092915050565b5f60088302620004407fffffffffffffffffffffffffffffffffffffffffffffffffffffffffffffffff8262000403565b6200044c868362000403565b95508019841693508086168417925050509392505050565b5f819050919050565b5f819050919050565b5f62000496620004906200048a8462000464565b6200046d565b62000464565b9050919050565b5f819050919050565b620004b18362000476565b620004c9620004c0826200049d565b8484546200040f565b825550505050565b5f90565b620004df620004d1565b620004ec818484620004a6565b505050565b5b818110156200051357620005075f82620004d5565b600181019050620004f2565b5050565b601f82111562000562576200052c81620003e2565b6200053784620003f4565b8101602085101562000547578190505b6200055f6200055685620003f4565b830182620004f1565b50505b505050565b5f82821c905092915050565b5f620005845f198460080262000567565b1980831691505092915050565b5f6200059e838362000573565b9150826002028217905092915050565b620005b9826200034a565b67ffffffffffffffff811115620005d557620005d462000354565b5b620005e18254620003ae565b620005ee82828562000517565b5f60209050601f83116001811462000624575f84156200060f578287015190505b6200061b858262000591565b8655506200068a565b601f1984166200063486620003e2565b5f5b828110156200065d5784890151825560018201915060208501945060208101905062000636565b868310156200067d578489015162000679601f89168262000573565b8355505b6001600288020188555050505b505050505050565b5f82825260208201905092915050565b7f45524332303a206d696e7420746f20746865207a65726f2061646472657373005f82015250565b5f620006d8601f8362000692565b9150620006e582620006a2565b602082019050919050565b5f6020820190508181035f8301526200070981620006ca565b9050919050565b7f4e487b71000000000000000000000000000000000000000000000000000000005f52601160045260245ffd5b5f620007498262000464565b9150620007568362000464565b925082820190508082111562000771576200077062000710565b5b92915050565b620007828162000464565b82525050565b5f6020820190506200079d5f83018462000777565b92915050565b608051612139620007bc5f395f61070301526121395ff3fe608060405234801561000f575f80fd5b5060043610610140575f3560e01c80636d1b229d116100b6578063a0712d681161007a578063a0712d6814610354578063a457c2d714610370578063a9059cbb146103a0578063dd62ed3e146103d0578063f2fde38b14610400578063fccc28131461041c57610140565b80636d1b229d146102c257806370a08231146102de578063715018a61461030e5780638da5cb5b1461031857806395d89b411461033657610140565b8063313ce56711610108578063313ce567146101fe57806332cb6b0c1461021c578063395093511461023a57806342966c681461026a5780635427789c146102865780635c975abb146102a457610140565b806306fdde0314610144578063095ea7b31461016257806318160ddd1461019257806323b872dd146101b05780632ff2e9dc146101e0575b5f80fd5b61014c61043a565b604051610159919061158d565b60405180910390f35b61017c6004803603810190610177919061163e565b6104ca565b6040516101899190611696565b60405180910390f35b61019a6104ec565b6040516101a791906116be565b60405180910390f35b6101ca60048036038101906101c591906116d7565b6104f5565b6040516101d79190611696565b60405180910390f35b6101e8610648565b6040516101f591906116be565b60405180910390f35b610206610658565b6040516102139190611742565b60405180910390f35b610224610660565b60405161023191906116be565b60405180910390f35b610254600480360381019061024f919061163e565b610670565b6040516102619190611696565b60405180910390f35b610284600480360381019061027f919061175b565b6106a6565b005b61028e610701565b60405161029b91906116be565b60405180910390f35b6102ac610725565b6040516102b99190611696565b60405180910390f35b6102dc60048036038101906102d7919061175b565b61073b565b005b6102f860048036038101906102f39190611786565b6107e9565b60405161030591906116be565b60405180910390f35b61031661082e565b005b610320610841565b60405161032d91906117c0565b60405180910390f35b61033e610869565b60405161034b919061158d565b60405180910390f35b61036e6004803603810190610369919061175b565b6108f9565b005b61038a6004803603810190610385919061163e565b61095c565b6040516103979190611696565b60405180910390f35b6103ba60048036038101906103b5919061163e565b6109d1565b6040516103c79190611696565b60405180910390f35b6103ea60048036038101906103e591906117d9565b610a42565b6040516103f791906116be565b60405180910390f35b61041a60048036038101906104159190611786565b610ac4565b005b610424610b46565b60405161043191906117c0565b60405180910390f35b60606003805461044990611844565b80601f016020809104026020016040519081016040528092919081815260200182805461047590611844565b80156104c05780601f10610497576101008083540402835291602001916104c0565b820191905f5260205f20905b8154815290600101906020018083116104a357829003601f168201915b5050505050905090565b5f806104d4610b4c565b90506104e1818585610b53565b600191505092915050565b5f600254905090565b5f6104fe610d16565b8373ffffffffffffffffffffffffffffffffffffffff1661051d610b4c565b73ffffffffffffffffffffffffffffffffffffffff16148061054f575061054b84610546610b4c565b610a42565b8211155b61058e576040517f08c379a0000000000000000000000000000000000000000000000000000000008152600401610585906118e4565b60405180910390fd5b8373ffffffffffffffffffffffffffffffffffffffff166105ad610b4c565b73ffffffffffffffffffffffffffffffffffffffff161415801561060157507fffffffffffffffffffffffffffffffffffffffffffffffffffffffffffffffff6105fe856105f9610b4c565b610a42565b14155b156106345761063384610612610b4c565b846106248861061f610b4c565b610a42565b61062e919061192f565b610b53565b5b61063f848484610d60565b90509392505050565b6b014adf4b7320334b9000000081565b5f6012905090565b6b0295be96e64066972000000081565b5f8061067a610b4c565b905061069b81858561068c8589610a42565b6106969190611962565b610b53565b600191505092915050565b6106b03382610d8e565b3373ffffffffffffffffffffffffffffffffffffffff167f1af5163f80e79b5e554f61e1d052084d3a3fe1166e42a265798c4e2ddce8ffa2826040516106f691906116be565b60405180910390a250565b7f000000000000000000000000000000000000000000000000000000000000000081565b5f600560149054906101000a900460ff16905090565b610743610f51565b61074c336107e9565b81111561078e576040517f08c379a0000000000000000000000000000000000000000000000000000000008152600401610785906119df565b60405180910390fd5b6107983382610d8e565b3373ffffffffffffffffffffffffffffffffffffffff167f1af5163f80e79b5e554f61e1d052084d3a3fe1166e42a265798c4e2ddce8ffa2826040516107de91906116be565b60405180910390a250565b5f805f8373ffffffffffffffffffffffffffffffffffffffff1673ffffffffffffffffffffffffffffffffffffffff1681526020019081526020015f20549050919050565b610836610f51565b61083f5f610fcf565b565b5f60055f9054906101000a900473ffffffffffffffffffffffffffffffffffffffff16905090565b60606004805461087890611844565b80601f01602080910402602001604051908101604052809291908181526020018280546108a490611844565b80156108ef5780601f106108c6576101008083540402835291602001916108ef565b820191905f5260205f20905b8154815290600101906020018083116108d257829003601f168201915b5050505050905090565b610901610f51565b61090b3382611092565b3373ffffffffffffffffffffffffffffffffffffffff167fb9144c96c86541f6fa89c9f2f02495cccf4b08cd6643e26d34ee00aa586558a88260405161095191906116be565b60405180910390a250565b5f80610966610b4c565b90505f6109738286610a42565b9050838110156109b8576040517f08c379a00000000000000000000000000000000000000000000000000000000081526004016109af90611a6d565b60405180910390fd5b6109c58286868403610b53565b60019250505092915050565b5f6109da610d16565b6109e3336107e9565b821115610a25576040517f08c379a0000000000000000000000000000000000000000000000000000000008152600401610a1c90611ad5565b60405180910390fd5b610a303384846111e0565b610a3a838361144c565b905092915050565b5f60015f8473ffffffffffffffffffffffffffffffffffffffff1673ffffffffffffffffffffffffffffffffffffffff1681526020019081526020015f205f8373ffffffffffffffffffffffffffffffffffffffff1673ffffffffffffffffffffffffffffffffffffffff1681526020019081526020015f2054905092915050565b610acc610f51565b5f73ffffffffffffffffffffffffffffffffffffffff168173ffffffffffffffffffffffffffffffffffffffff1603610b3a576040517f08c379a0000000000000000000000000000000000000000000000000000000008152600401610b3190611b63565b60405180910390fd5b610b4381610fcf565b50565b61dead81565b5f33905090565b5f73ffffffffffffffffffffffffffffffffffffffff168373ffffffffffffffffffffffffffffffffffffffff1603610bc1576040517f08c379a0000000000000000000000000000000000000000000000000000000008152600401610bb890611bf1565b60405180910390fd5b5f73ffffffffffffffffffffffffffffffffffffffff168273ffffffffffffffffffffffffffffffffffffffff1603610c2f576040517f08c379a0000000000000000000000000000000000000000000000000000000008152600401610c2690611c7f565b60405180910390fd5b8060015f8573ffffffffffffffffffffffffffffffffffffffff1673ffffffffffffffffffffffffffffffffffffffff1681526020019081526020015f205f8473ffffffffffffffffffffffffffffffffffffffff1673ffffffffffffffffffffffffffffffffffffffff1681526020019081526020015f20819055508173ffffffffffffffffffffffffffffffffffffffff168373ffffffffffffffffffffffffffffffffffffffff167f8c5be1e5ebec7d5bd14f71427d1e84f3dd0314c0f7b2291e5b200ac8c7c3b92583604051610d0991906116be565b60405180910390a3505050565b610d1e610725565b15610d5e576040517f08c379a0000000000000000000000000000000000000000000000000000000008152600401610d5590611ce7565b60405180910390fd5b565b5f80610d6a610b4c565b9050610d7785828561146e565b610d828585856111e0565b60019150509392505050565b5f73ffffffffffffffffffffffffffffffffffffffff168273ffffffffffffffffffffffffffffffffffffffff1603610dfc576040517f08c379a0000000000000000000000000000000000000000000000000000000008152600401610df390611d75565b60405180910390fd5b610e07825f836114f9565b5f805f8473ffffffffffffffffffffffffffffffffffffffff1673ffffffffffffffffffffffffffffffffffffffff1681526020019081526020015f2054905081811015610e8a576040517f08c379a0000000000000000000000000000000000000000000000000000000008152600401610e8190611e03565b60405180910390fd5b8181035f808573ffffffffffffffffffffffffffffffffffffffff1673ffffffffffffffffffffffffffffffffffffffff1681526020019081526020015f20819055508160025f82825403925050819055505f73ffffffffffffffffffffffffffffffffffffffff168373ffffffffffffffffffffffffffffffffffffffff167fddf252ad1be2c89b69c2b068fc378daa952ba7f163c4a11628f55a4df523b3ef84604051610f3991906116be565b60405180910390a3610f4c835f846114fe565b505050565b610f59610b4c565b73ffffffffffffffffffffffffffffffffffffffff16610f77610841565b73ffffffffffffffffffffffffffffffffffffffff1614610fcd576040517f08c379a0000000000000000000000000000000000000000000000000000000008152600401610fc490611e6b565b60405180910390fd5b565b5f60055f9054906101000a900473ffffffffffffffffffffffffffffffffffffffff1690508160055f6101000a81548173ffffffffffffffffffffffffffffffffffffffff021916908373ffffffffffffffffffffffffffffffffffffffff1602179055508173ffffffffffffffffffffffffffffffffffffffff168173ffffffffffffffffffffffffffffffffffffffff167f8be0079c531659141344cd1fd0a4f28419497f9722a3daafe3b4186f6b6457e060405160405180910390a35050565b5f73ffffffffffffffffffffffffffffffffffffffff168273ffffffffffffffffffffffffffffffffffffffff1603611100576040517f08c379a00000000000000000000000000000000000000000000000000000000081526004016110f790611ed3565b60405180910390fd5b61110b5f83836114f9565b8060025f82825461111c9190611962565b92505081905550805f808473ffffffffffffffffffffffffffffffffffffffff1673ffffffffffffffffffffffffffffffffffffffff1681526020019081526020015f205f82825401925050819055508173ffffffffffffffffffffffffffffffffffffffff165f73ffffffffffffffffffffffffffffffffffffffff167fddf252ad1be2c89b69c2b068fc378daa952ba7f163c4a11628f55a4df523b3ef836040516111c991906116be565b60405180910390a36111dc5f83836114fe565b5050565b5f73ffffffffffffffffffffffffffffffffffffffff168373ffffffffffffffffffffffffffffffffffffffff160361124e576040517f08c379a000000000000000000000000000000000000000000000000000000000815260040161124590611f61565b60405180910390fd5b5f73ffffffffffffffffffffffffffffffffffffffff168273ffffffffffffffffffffffffffffffffffffffff16036112bc576040517f08c379a00000000000000000000000000000000000000000000000000000000081526004016112b390611fef565b60405180910390fd5b6112c78383836114f9565b5f805f8573ffffffffffffffffffffffffffffffffffffffff1673ffffffffffffffffffffffffffffffffffffffff1681526020019081526020015f205490508181101561134a576040517f08c379a00000000000000000000000000000000000000000000000000000000081526004016113419061207d565b60405180910390fd5b8181035f808673ffffffffffffffffffffffffffffffffffffffff1673ffffffffffffffffffffffffffffffffffffffff1681526020019081526020015f2081905550815f808573ffffffffffffffffffffffffffffffffffffffff1673ffffffffffffffffffffffffffffffffffffffff1681526020019081526020015f205f82825401925050819055508273ffffffffffffffffffffffffffffffffffffffff168473ffffffffffffffffffffffffffffffffffffffff167fddf252ad1be2c89b69c2b068fc378daa952ba7f163c4a11628f55a4df523b3ef8460405161143391906116be565b60405180910390a36114468484846114fe565b50505050565b5f80611456610b4c565b90506114638185856111e0565b600191505092915050565b5f6114798484610a42565b90507fffffffffffffffffffffffffffffffffffffffffffffffffffffffffffffffff81146114f357818110156114e5576040517f08c379a00000000000000000000000000000000000000000000000000000000081526004016114dc906120e5565b60405180910390fd5b6114f28484848403610b53565b5b50505050565b505050565b505050565b5f81519050919050565b5f82825260208201905092915050565b5f5b8381101561153a57808201518184015260208101905061151f565b5f8484015250505050565b5f601f19601f8301169050919050565b5f61155f82611503565b611569818561150d565b935061157981856020860161151d565b61158281611545565b840191505092915050565b5f6020820190508181035f8301526115a58184611555565b905092915050565b5f80fd5b5f73ffffffffffffffffffffffffffffffffffffffff82169050919050565b5f6115da826115b1565b9050919050565b6115ea816115d0565b81146115f4575f80fd5b50565b5f81359050611605816115e1565b92915050565b5f819050919050565b61161d8161160b565b8114611627575f80fd5b50565b5f8135905061163881611614565b92915050565b5f8060408385031215611654576116536115ad565b5b5f611661858286016115f7565b92505060206116728582860161162a565b9150509250929050565b5f8115159050919050565b6116908161167c565b82525050565b5f6020820190506116a95f830184611687565b92915050565b6116b88161160b565b82525050565b5f6020820190506116d15f8301846116af565b92915050565b5f805f606084860312156116ee576116ed6115ad565b5b5f6116fb868287016115f7565b935050602061170c868287016115f7565b925050604061171d8682870161162a565b9150509250925092565b5f60ff82169050919050565b61173c81611727565b82525050565b5f6020820190506117555f830184611733565b92915050565b5f602082840312156117705761176f6115ad565b5b5f61177d8482850161162a565b91505092915050565b5f6020828403121561179b5761179a6115ad565b5b5f6117a8848285016115f7565b91505092915050565b6117ba816115d0565b82525050565b5f6020820190506117d35f8301846117b1565b92915050565b5f80604083850312156117ef576117ee6115ad565b5b5f6117fc858286016115f7565b925050602061180d858286016115f7565b9150509250929050565b7f4e487b71000000000000000000000000000000000000000000000000000000005f52602260045260245ffd5b5f600282049050600182168061185b57607f821691505b60208210810361186e5761186d611817565b5b50919050565b7f45524332303a207472616e7366657220616d6f756e74206578636565647320615f8201527f6c6c6f77616e6365000000000000000000000000000000000000000000000000602082015250565b5f6118ce60288361150d565b91506118d982611874565b604082019050919050565b5f6020820190508181035f8301526118fb816118c2565b9050919050565b7f4e487b71000000000000000000000000000000000000000000000000000000005f52601160045260245ffd5b5f6119398261160b565b91506119448361160b565b925082820390508181111561195c5761195b611902565b5b92915050565b5f61196c8261160b565b91506119778361160b565b925082820190508082111561198f5761198e611902565b5b92915050565b7f696e73756666696369656e742062616c616e63657300000000000000000000005f82015250565b5f6119c960158361150d565b91506119d482611995565b602082019050919050565b5f6020820190508181035f8301526119f6816119bd565b9050919050565b7f45524332303a2064656372656173656420616c6c6f77616e63652062656c6f775f8201527f207a65726f000000000000000000000000000000000000000000000000000000602082015250565b5f611a5760258361150d565b9150611a62826119fd565b604082019050919050565b5f6020820190508181035f830152611a8481611a4b565b9050919050565b7f696e73756666696369656e742062616c616e63650000000000000000000000005f82015250565b5f611abf60148361150d565b9150611aca82611a8b565b602082019050919050565b5f6020820190508181035f830152611aec81611ab3565b9050919050565b7f4f776e61626c653a206e6577206f776e657220697320746865207a65726f20615f8201527f6464726573730000000000000000000000000000000000000000000000000000602082015250565b5f611b4d60268361150d565b9150611b5882611af3565b604082019050919050565b5f6020820190508181035f830152611b7a81611b41565b9050919050565b7f45524332303a20617070726f76652066726f6d20746865207a65726f206164645f8201527f7265737300000000000000000000000000000000000000000000000000000000602082015250565b5f611bdb60248361150d565b9150611be682611b81565b604082019050919050565b5f6020820190508181035f830152611c0881611bcf565b9050919050565b7f45524332303a20617070726f766520746f20746865207a65726f2061646472655f8201527f7373000000000000000000000000000000000000000000000000000000000000602082015250565b5f611c6960228361150d565b9150611c7482611c0f565b604082019050919050565b5f6020820190508181035f830152611c9681611c5d565b9050919050565b7f5061757361626c653a20706175736564000000000000000000000000000000005f82015250565b5f611cd160108361150d565b9150611cdc82611c9d565b602082019050919050565b5f6020820190508181035f830152611cfe81611cc5565b9050919050565b7f45524332303a206275726e2066726f6d20746865207a65726f206164647265735f8201527f7300000000000000000000000000000000000000000000000000000000000000602082015250565b5f611d5f60218361150d565b9150611d6a82611d05565b604082019050919050565b5f6020820190508181035f830152611d8c81611d53565b9050919050565b7f45524332303a206275726e20616d6f756e7420657863656564732062616c616e5f8201527f6365000000000000000000000000000000000000000000000000000000000000602082015250565b5f611ded60228361150d565b9150611df882611d93565b604082019050919050565b5f6020820190508181035f830152611e1a81611de1565b9050919050565b7f4f776e61626c653a2063616c6c6572206973206e6f7420746865206f776e65725f82015250565b5f611e5560208361150d565b9150611e6082611e21565b602082019050919050565b5f6020820190508181035f830152611e8281611e49565b9050919050565b7f45524332303a206d696e7420746f20746865207a65726f2061646472657373005f82015250565b5f611ebd601f8361150d565b9150611ec882611e89565b602082019050919050565b5f6020820190508181035f830152611eea81611eb1565b9050919050565b7f45524332303a207472616e736665722066726f6d20746865207a65726f2061645f8201527f6472657373000000000000000000000000000000000000000000000000000000602082015250565b5f611f4b60258361150d565b9150611f5682611ef1565b604082019050919050565b5f6020820190508181035f830152611f7881611f3f565b9050919050565b7f45524332303a207472616e7366657220746f20746865207a65726f20616464725f8201527f6573730000000000000000000000000000000000000000000000000000000000602082015250565b5f611fd960238361150d565b9150611fe482611f7f565b604082019050919050565b5f6020820190508181035f83015261200681611fcd565b9050919050565b7f45524332303a207472616e7366657220616d6f756e74206578636565647320625f8201527f616c616e63650000000000000000000000000000000000000000000000000000602082015250565b5f61206760268361150d565b91506120728261200d565b604082019050919050565b5f6020820190508181035f8301526120948161205b565b9050919050565b7f45524332303a20696e73756666696369656e7420616c6c6f77616e63650000005f82015250565b5f6120cf601d8361150d565b91506120da8261209b565b602082019050919050565b5f6020820190508181035f8301526120fc816120c3565b905091905056fea2646970667358221220fc0d2ea3391ac11ea8216c2b3de5c49d71aee89e56ce5dfeb7bee4fe2f4ac56464736f6c63430008140033",
  "immutableReferences": {
    "1314": [
      {
        "length": 32,
        "start": 1795
      }
    ]
  },
  "source": "// contracts/SeventToken.sol\r\n//SPDX-License-Identifier: MIT\r\n\r\nimport \"@openzeppelin/contracts/token/ERC20/ERC20.sol\";\r\nimport \"@openzeppelin/contracts/access/Ownable.sol\";\r\nimport \"@openzeppelin/contracts/security/Pausable.sol\";\r\nimport \"@openzeppelin/contracts/utils/math/SafeMath.sol\";\r\nimport \"./ISeventFinance.sol\";\r\n\r\npragma solidity ^0.8.19;\r\n\r\ncontract SeventFinance is ERC20, Ownable, Pausable{\r\n\r\n    using SafeMath for uint256;\r\n    uint256 public constant INITIAL_SUPPLY = 400000000 * 10**18;\r\n    uint256 public immutable MINT_AMOUNT = 100 * 10**18;\r\n\r\n    address public constant BURN_ADDRESS = 0x000000000000000000000000000000000000dEaD;\r\n    uint256 public constant MAX_SUPPLY = 800000000 * 10**18; \r\n\r\n    event TokenBurned(address indexed burner, uint256 amount);\r\n    event TokenMinted(address indexed minter, uint256 amount);\r\n\r\n    constructor() ERC20(\"SeventFinance\", \"Sevent\") {\r\n        _mint(msg.sender, INITIAL_SUPPLY);\r\n    }\r\n\r\n    function transfer(address recipient, uint256 amount) public virtual override whenNotPaused returns(bool) {\r\n        require(amount <= balanceOf(msg.sender), \"insufficient balance\");\r\n\r\n        _transfer(msg.sender, recipient, amount);\r\n        return super.transfer(recipient, amount);\r\n    }\r\n\r\n    function transferFrom(address sender, address recipient, uint256 amount) public virtual whenNotPaused override returns (bool) {\r\n        require(_msgSender() == sender || amount <= allowance (sender, _msgSender()), \"ERC20: transfer amount exceeds allowance\");\r\n\r\n        if (_msgSender() != sender && allowance(sender, _msgSender()) != type(uint256).max) {\r\n            _approve(sender, _msgSender(), allowance(sender, _msgSender())- amount);\r\n        }\r\n        return super.transferFrom(sender, recipient, amount);\r\n    }\r\n\r\n    function burn(uint256 amount) public {\r\n        _burn(msg.sender, amount);\r\n        emit TokenBurned(msg.sender, amount);\r\n    }\r\n\r\n    function mint(uint256 amount) public onlyOwner{\r\n        _mint(msg.sender, amount);\r\n        emit TokenMinted(msg.sender, amount);\r\n    }\r\n\r\n    function burnTokens(uint256 amount) public onlyOwner {\r\n        require(amount <= balanceOf(msg.sender), \"insufficient balances\");\r\n        _burn(msg.sender, amount);\r\n        emit TokenBurned(msg.sender, amount);\r\n    }\r\n}",
  "sourcePath": "D:\\sevenDAO\\MainContract\\contracts\\SeventFinance.sol",
  "compiler": {
    "name": "solc",
    "version": "0.8.20+commit.a1b79de6.Emscripten.clang"
  },
  "schemaVersion": "3.4.14",
  "updatedAt": "2023-08-05T10:28:33.824Z",
  "devdoc": {
    "events": {
      "Approval(address,address,uint256)": {
        "details": "Emitted when the allowance of a `spender` for an `owner` is set by a call to {approve}. `value` is the new allowance."
      },
      "Paused(address)": {
        "details": "Emitted when the pause is triggered by `account`."
      },
      "Transfer(address,address,uint256)": {
        "details": "Emitted when `value` tokens are moved from one account (`from`) to another (`to`). Note that `value` may be zero."
      },
      "Unpaused(address)": {
        "details": "Emitted when the pause is lifted by `account`."
      }
    },
    "kind": "dev",
    "methods": {
      "allowance(address,address)": {
        "details": "See {IERC20-allowance}."
      },
      "approve(address,uint256)": {
        "details": "See {IERC20-approve}. NOTE: If `amount` is the maximum `uint256`, the allowance is not updated on `transferFrom`. This is semantically equivalent to an infinite approval. Requirements: - `spender` cannot be the zero address."
      },
      "balanceOf(address)": {
        "details": "See {IERC20-balanceOf}."
      },
      "decimals()": {
        "details": "Returns the number of decimals used to get its user representation. For example, if `decimals` equals `2`, a balance of `505` tokens should be displayed to a user as `5.05` (`505 / 10 ** 2`). Tokens usually opt for a value of 18, imitating the relationship between Ether and Wei. This is the default value returned by this function, unless it's overridden. NOTE: This information is only used for _display_ purposes: it in no way affects any of the arithmetic of the contract, including {IERC20-balanceOf} and {IERC20-transfer}."
      },
      "decreaseAllowance(address,uint256)": {
        "details": "Atomically decreases the allowance granted to `spender` by the caller. This is an alternative to {approve} that can be used as a mitigation for problems described in {IERC20-approve}. Emits an {Approval} event indicating the updated allowance. Requirements: - `spender` cannot be the zero address. - `spender` must have allowance for the caller of at least `subtractedValue`."
      },
      "increaseAllowance(address,uint256)": {
        "details": "Atomically increases the allowance granted to `spender` by the caller. This is an alternative to {approve} that can be used as a mitigation for problems described in {IERC20-approve}. Emits an {Approval} event indicating the updated allowance. Requirements: - `spender` cannot be the zero address."
      },
      "name()": {
        "details": "Returns the name of the token."
      },
      "owner()": {
        "details": "Returns the address of the current owner."
      },
      "paused()": {
        "details": "Returns true if the contract is paused, and false otherwise."
      },
      "renounceOwnership()": {
        "details": "Leaves the contract without owner. It will not be possible to call `onlyOwner` functions. Can only be called by the current owner. NOTE: Renouncing ownership will leave the contract without an owner, thereby disabling any functionality that is only available to the owner."
      },
      "symbol()": {
        "details": "Returns the symbol of the token, usually a shorter version of the name."
      },
      "totalSupply()": {
        "details": "See {IERC20-totalSupply}."
      },
      "transferOwnership(address)": {
        "details": "Transfers ownership of the contract to a new account (`newOwner`). Can only be called by the current owner."
      }
    },
    "version": 1
  },
  "userdoc": {
    "kind": "user",
    "methods": {},
    "version": 1
  }
}