{
  "contractName": "SeventToken",
  "abi": [
    {
      "inputs": [],
      "name": "decimal",
      "outputs": [
        {
          "internalType": "uint8",
          "name": "",
          "type": "uint8"
        }
      ],
      "stateMutability": "view",
      "type": "function"
    },
    {
      "inputs": [],
      "name": "initialSupply",
      "outputs": [
        {
          "internalType": "uint256",
          "name": "",
          "type": "uint256"
        }
      ],
      "stateMutability": "view",
      "type": "function"
    },
    {
      "inputs": [],
      "name": "name",
      "outputs": [
        {
          "internalType": "string",
          "name": "",
          "type": "string"
        }
      ],
      "stateMutability": "view",
      "type": "function"
    },
    {
      "inputs": [],
      "name": "symbol",
      "outputs": [
        {
          "internalType": "string",
          "name": "",
          "type": "string"
        }
      ],
      "stateMutability": "view",
      "type": "function"
    }
  ],
  "bytecode": "0x608060405234801561000f575f80fd5b506102918061001d5f395ff3fe608060405234801561000f575f80fd5b506004361061004a575f3560e01c806306fdde031461004e578063378dc3dc1461006c57806376809ce31461008a57806395d89b41146100a8575b5f80fd5b6100566100c6565b60405161006391906101d6565b60405180910390f35b6100746100ff565b604051610081919061020e565b60405180910390f35b61009261010e565b60405161009f9190610242565b60405180910390f35b6100b0610113565b6040516100bd91906101d6565b60405180910390f35b6040518060400160405280600b81526020017f536576656e74546f6b656e00000000000000000000000000000000000000000081525081565b6aa56fa5b99019a5c800000081565b601281565b6040518060400160405280600281526020017f537400000000000000000000000000000000000000000000000000000000000081525081565b5f81519050919050565b5f82825260208201905092915050565b5f5b83811015610183578082015181840152602081019050610168565b5f8484015250505050565b5f601f19601f8301169050919050565b5f6101a88261014c565b6101b28185610156565b93506101c2818560208601610166565b6101cb8161018e565b840191505092915050565b5f6020820190508181035f8301526101ee818461019e565b905092915050565b5f819050919050565b610208816101f6565b82525050565b5f6020820190506102215f8301846101ff565b92915050565b5f60ff82169050919050565b61023c81610227565b82525050565b5f6020820190506102555f830184610233565b9291505056fea26469706673582212200fc4b9eef382c1cb6104deb7e9922374868900a07ac2433c27dbb9424da9438a64736f6c63430008140033",
  "immutableReferences": {},
  "source": "//SPDX-License-Identifier: MIT\r\n\r\npragma solidity ^0.8.19;\r\n\r\ncontract SeventToken {\r\n    string public constant name = \"SeventToken\";\r\n    string public constant symbol = \"St\";\r\n    uint256 public constant initialSupply = 200000000 * 10**18;\r\n    uint8 public constant decimal = 18;\r\n}",
  "sourcePath": "D:\\sevenDAO\\core\\contracts\\SeventToken.sol",
  "compiler": {
    "name": "solc",
    "version": "0.8.20+commit.a1b79de6.Emscripten.clang"
  },
  "schemaVersion": "3.4.14",
  "updatedAt": "2023-08-01T12:10:37.815Z",
  "devdoc": {
    "kind": "dev",
    "methods": {},
    "version": 1
  },
  "userdoc": {
    "kind": "user",
    "methods": {},
    "version": 1
  }
}