{
  "contractName": "Voting",
  "abi": [
    {
      "inputs": [
        {
          "internalType": "address",
          "name": "_votingToken",
          "type": "address"
        }
      ],
      "stateMutability": "nonpayable",
      "type": "constructor"
    },
    {
      "anonymous": false,
      "inputs": [
        {
          "indexed": true,
          "internalType": "uint256",
          "name": "proposalId",
          "type": "uint256"
        },
        {
          "indexed": false,
          "internalType": "uint256",
          "name": "voteCountYes",
          "type": "uint256"
        },
        {
          "indexed": false,
          "internalType": "uint256",
          "name": "voteCountNo",
          "type": "uint256"
        }
      ],
      "name": "NewVote",
      "type": "event"
    },
    {
      "anonymous": false,
      "inputs": [
        {
          "indexed": true,
          "internalType": "address",
          "name": "previousOwner",
          "type": "address"
        },
        {
          "indexed": true,
          "internalType": "address",
          "name": "newOwner",
          "type": "address"
        }
      ],
      "name": "OwnershipTransferred",
      "type": "event"
    },
    {
      "inputs": [],
      "name": "candidatesCount",
      "outputs": [
        {
          "internalType": "uint256",
          "name": "",
          "type": "uint256"
        }
      ],
      "stateMutability": "view",
      "type": "function"
    },
    {
      "inputs": [
        {
          "internalType": "address",
          "name": "",
          "type": "address"
        },
        {
          "internalType": "uint256",
          "name": "",
          "type": "uint256"
        }
      ],
      "name": "hasVoted",
      "outputs": [
        {
          "internalType": "bool",
          "name": "",
          "type": "bool"
        }
      ],
      "stateMutability": "view",
      "type": "function"
    },
    {
      "inputs": [],
      "name": "owner",
      "outputs": [
        {
          "internalType": "address",
          "name": "",
          "type": "address"
        }
      ],
      "stateMutability": "view",
      "type": "function"
    },
    {
      "inputs": [
        {
          "internalType": "uint256",
          "name": "",
          "type": "uint256"
        }
      ],
      "name": "proposals",
      "outputs": [
        {
          "internalType": "uint256",
          "name": "id",
          "type": "uint256"
        },
        {
          "internalType": "uint256",
          "name": "voteCountYes",
          "type": "uint256"
        },
        {
          "internalType": "uint256",
          "name": "voteCountNO",
          "type": "uint256"
        },
        {
          "internalType": "uint256",
          "name": "startTime",
          "type": "uint256"
        },
        {
          "internalType": "uint256",
          "name": "endTime",
          "type": "uint256"
        }
      ],
      "stateMutability": "view",
      "type": "function"
    },
    {
      "inputs": [],
      "name": "renounceOwnership",
      "outputs": [],
      "stateMutability": "nonpayable",
      "type": "function"
    },
    {
      "inputs": [
        {
          "internalType": "address",
          "name": "newOwner",
          "type": "address"
        }
      ],
      "name": "transferOwnership",
      "outputs": [],
      "stateMutability": "nonpayable",
      "type": "function"
    },
    {
      "inputs": [],
      "name": "votingToken",
      "outputs": [
        {
          "internalType": "contract IERC20",
          "name": "",
          "type": "address"
        }
      ],
      "stateMutability": "view",
      "type": "function"
    },
    {
      "inputs": [
        {
          "internalType": "uint256",
          "name": "_durationInDay",
          "type": "uint256"
        }
      ],
      "name": "createProposals",
      "outputs": [],
      "stateMutability": "nonpayable",
      "type": "function"
    },
    {
      "inputs": [
        {
          "internalType": "uint256",
          "name": "_proposalId",
          "type": "uint256"
        }
      ],
      "name": "getProposal",
      "outputs": [
        {
          "internalType": "uint256",
          "name": "",
          "type": "uint256"
        },
        {
          "internalType": "uint256",
          "name": "",
          "type": "uint256"
        },
        {
          "internalType": "uint256",
          "name": "",
          "type": "uint256"
        },
        {
          "internalType": "uint256",
          "name": "",
          "type": "uint256"
        },
        {
          "internalType": "uint256",
          "name": "",
          "type": "uint256"
        },
        {
          "internalType": "bool",
          "name": "",
          "type": "bool"
        }
      ],
      "stateMutability": "view",
      "type": "function"
    },
    {
      "inputs": [
        {
          "internalType": "uint256",
          "name": "_proposalId",
          "type": "uint256"
        },
        {
          "internalType": "bool",
          "name": "_voteYes",
          "type": "bool"
        }
      ],
      "name": "vote",
      "outputs": [],
      "stateMutability": "nonpayable",
      "type": "function"
    },
    {
      "inputs": [
        {
          "internalType": "uint256",
          "name": "_proposalId",
          "type": "uint256"
        }
      ],
      "name": "getProposalId",
      "outputs": [
        {
          "internalType": "uint256",
          "name": "",
          "type": "uint256"
        }
      ],
      "stateMutability": "view",
      "type": "function"
    },
    {
      "inputs": [
        {
          "internalType": "uint256",
          "name": "_proposalId",
          "type": "uint256"
        },
        {
          "internalType": "bool",
          "name": "_voteYes",
          "type": "bool"
        }
      ],
      "name": "getVoteCounts",
      "outputs": [
        {
          "internalType": "uint256",
          "name": "",
          "type": "uint256"
        }
      ],
      "stateMutability": "view",
      "type": "function"
    },
    {
      "inputs": [],
      "name": "getProposalCount",
      "outputs": [
        {
          "internalType": "uint256",
          "name": "",
          "type": "uint256"
        }
      ],
      "stateMutability": "view",
      "type": "function"
    }
  ],
  "bytecode": "0x608060405234801562000010575f80fd5b506040516200145838038062001458833981810160405281019062000036919062000216565b620000566200004a620000e960201b60201c565b620000f060201b60201c565b730fd466c1b04ad37502f1ee31392e398b2c01f29e73ffffffffffffffffffffffffffffffffffffffff168173ffffffffffffffffffffffffffffffffffffffff1614620000a2575f80fd5b8060035f6101000a81548173ffffffffffffffffffffffffffffffffffffffff021916908373ffffffffffffffffffffffffffffffffffffffff1602179055505062000246565b5f33905090565b5f805f9054906101000a900473ffffffffffffffffffffffffffffffffffffffff169050815f806101000a81548173ffffffffffffffffffffffffffffffffffffffff021916908373ffffffffffffffffffffffffffffffffffffffff1602179055508173ffffffffffffffffffffffffffffffffffffffff168173ffffffffffffffffffffffffffffffffffffffff167f8be0079c531659141344cd1fd0a4f28419497f9722a3daafe3b4186f6b6457e060405160405180910390a35050565b5f80fd5b5f73ffffffffffffffffffffffffffffffffffffffff82169050919050565b5f620001e082620001b5565b9050919050565b620001f281620001d4565b8114620001fd575f80fd5b50565b5f815190506200021081620001e7565b92915050565b5f602082840312156200022e576200022d620001b1565b5b5f6200023d8482850162000200565b91505092915050565b61120480620002545f395ff3fe608060405234801561000f575f80fd5b50600436106100cd575f3560e01c80638da5cb5b1161008a578063c08cc02d11610064578063c08cc02d14610215578063c7f758a814610233578063c9d27afe14610268578063f2fde38b14610284576100cd565b80638da5cb5b146101a957806399f08ab3146101c7578063b0340123146101f7576100cd565b8063013cf08b146100d15780632d35a8a214610105578063425458251461012357806355ee183614610153578063715018a61461016f5780637c95ac2714610179575b5f80fd5b6100eb60048036038101906100e69190610b9e565b6102a0565b6040516100fc959493929190610bd8565b60405180910390f35b61010d6102e1565b60405161011a9190610c29565b60405180910390f35b61013d60048036038101906101389190610c9c565b6102e7565b60405161014a9190610cf4565b60405180910390f35b61016d60048036038101906101689190610b9e565b610311565b005b610177610473565b005b610193600480360381019061018e9190610b9e565b610486565b6040516101a09190610c29565b60405180910390f35b6101b16104f8565b6040516101be9190610d1c565b60405180910390f35b6101e160048036038101906101dc9190610d5f565b61051f565b6040516101ee9190610c29565b60405180910390f35b6101ff6105a8565b60405161020c9190610df8565b60405180910390f35b61021d6105cd565b60405161022a9190610c29565b60405180910390f35b61024d60048036038101906102489190610b9e565b6105d9565b60405161025f96959493929190610e11565b60405180910390f35b610282600480360381019061027d9190610d5f565b610652565b005b61029e60048036038101906102999190610e70565b6108c1565b005b600481815481106102af575f80fd5b905f5260205f2090600502015f91509050805f0154908060010154908060020154908060030154908060040154905085565b60055481565b6006602052815f5260405f20602052805f5260405f205f915091509054906101000a900460ff1681565b730fd466c1b04ad37502f1ee31392e398b2c01f29e73ffffffffffffffffffffffffffffffffffffffff1660035f9054906101000a900473ffffffffffffffffffffffffffffffffffffffff1673ffffffffffffffffffffffffffffffffffffffff16146103b4576040517f08c379a00000000000000000000000000000000000000000000000000000000081526004016103ab90610ef5565b60405180910390fd5b5f60048054905090505f4290505f6103ea6103db620151808661094390919063ffffffff16565b8361095890919063ffffffff16565b905060046040518060a001604052808581526020018481526020018381526020015f81526020015f815250908060018154018082558091505060019003905f5260205f2090600502015f909190919091505f820151815f015560208201518160010155604082015181600201556060820151816003015560808201518160040155505050505050565b61047b61096d565b6104845f6109eb565b565b5f60048054905082106104ce576040517f08c379a00000000000000000000000000000000000000000000000000000000081526004016104c590610f5d565b60405180910390fd5b600482815481106104e2576104e1610f7b565b5b905f5260205f2090600502015f01549050919050565b5f805f9054906101000a900473ffffffffffffffffffffffffffffffffffffffff16905090565b5f6004805490508310610567576040517f08c379a000000000000000000000000000000000000000000000000000000000815260040161055e90610f5d565b60405180910390fd5b5f6004848154811061057c5761057b610f7b565b5b905f5260205f20906005020190508261059957806002015461059f565b80600101545b91505092915050565b60035f9054906101000a900473ffffffffffffffffffffffffffffffffffffffff1681565b5f600480549050905090565b5f805f805f805f600488815481106105f4576105f3610f7b565b5b905f5260205f20906005020190505f4290505f8260030154821015801561061f575082600401548211155b9050825f015483600301548460040154856001015486600201548598509850985098509850985050505091939550919395565b730fd466c1b04ad37502f1ee31392e398b2c01f29e73ffffffffffffffffffffffffffffffffffffffff1660035f9054906101000a900473ffffffffffffffffffffffffffffffffffffffff1673ffffffffffffffffffffffffffffffffffffffff16146106f5576040517f08c379a00000000000000000000000000000000000000000000000000000000081526004016106ec90610ef5565b60405180910390fd5b600480549050821061073c576040517f08c379a000000000000000000000000000000000000000000000000000000000815260040161073390610f5d565b60405180910390fd5b5f6004838154811061075157610750610f7b565b5b905f5260205f2090600502019050806003015442118015610776575080600401544211155b6107b5576040517f08c379a00000000000000000000000000000000000000000000000000000000081526004016107ac90610ff2565b60405180910390fd5b600160065f3373ffffffffffffffffffffffffffffffffffffffff1673ffffffffffffffffffffffffffffffffffffffff1681526020019081526020015f205f8581526020019081526020015f205f6101000a81548160ff0219169083151502179055508115610844576108376001826001015461095890919063ffffffff16565b8160010181905550610865565b61085c6001826002015461095890919063ffffffff16565b81600201819055505b610879336001610aac90919063ffffffff16565b50827f338d69987814e01ad896f1f4063e62e29e7510fc7327f6ea726319a271cee167826001015483600201546040516108b4929190611010565b60405180910390a2505050565b6108c961096d565b5f73ffffffffffffffffffffffffffffffffffffffff168173ffffffffffffffffffffffffffffffffffffffff1603610937576040517f08c379a000000000000000000000000000000000000000000000000000000000815260040161092e906110a7565b60405180910390fd5b610940816109eb565b50565b5f818361095091906110f2565b905092915050565b5f81836109659190611133565b905092915050565b610975610ad9565b73ffffffffffffffffffffffffffffffffffffffff166109936104f8565b73ffffffffffffffffffffffffffffffffffffffff16146109e9576040517f08c379a00000000000000000000000000000000000000000000000000000000081526004016109e0906111b0565b60405180910390fd5b565b5f805f9054906101000a900473ffffffffffffffffffffffffffffffffffffffff169050815f806101000a81548173ffffffffffffffffffffffffffffffffffffffff021916908373ffffffffffffffffffffffffffffffffffffffff1602179055508173ffffffffffffffffffffffffffffffffffffffff168173ffffffffffffffffffffffffffffffffffffffff167f8be0079c531659141344cd1fd0a4f28419497f9722a3daafe3b4186f6b6457e060405160405180910390a35050565b5f610ad1835f018373ffffffffffffffffffffffffffffffffffffffff165f1b610ae0565b905092915050565b5f33905090565b5f610aeb8383610b47565b610b3d57825f0182908060018154018082558091505060019003905f5260205f20015f9091909190915055825f0180549050836001015f8481526020019081526020015f208190555060019050610b41565b5f90505b92915050565b5f80836001015f8481526020019081526020015f20541415905092915050565b5f80fd5b5f819050919050565b610b7d81610b6b565b8114610b87575f80fd5b50565b5f81359050610b9881610b74565b92915050565b5f60208284031215610bb357610bb2610b67565b5b5f610bc084828501610b8a565b91505092915050565b610bd281610b6b565b82525050565b5f60a082019050610beb5f830188610bc9565b610bf86020830187610bc9565b610c056040830186610bc9565b610c126060830185610bc9565b610c1f6080830184610bc9565b9695505050505050565b5f602082019050610c3c5f830184610bc9565b92915050565b5f73ffffffffffffffffffffffffffffffffffffffff82169050919050565b5f610c6b82610c42565b9050919050565b610c7b81610c61565b8114610c85575f80fd5b50565b5f81359050610c9681610c72565b92915050565b5f8060408385031215610cb257610cb1610b67565b5b5f610cbf85828601610c88565b9250506020610cd085828601610b8a565b9150509250929050565b5f8115159050919050565b610cee81610cda565b82525050565b5f602082019050610d075f830184610ce5565b92915050565b610d1681610c61565b82525050565b5f602082019050610d2f5f830184610d0d565b92915050565b610d3e81610cda565b8114610d48575f80fd5b50565b5f81359050610d5981610d35565b92915050565b5f8060408385031215610d7557610d74610b67565b5b5f610d8285828601610b8a565b9250506020610d9385828601610d4b565b9150509250929050565b5f819050919050565b5f610dc0610dbb610db684610c42565b610d9d565b610c42565b9050919050565b5f610dd182610da6565b9050919050565b5f610de282610dc7565b9050919050565b610df281610dd8565b82525050565b5f602082019050610e0b5f830184610de9565b92915050565b5f60c082019050610e245f830189610bc9565b610e316020830188610bc9565b610e3e6040830187610bc9565b610e4b6060830186610bc9565b610e586080830185610bc9565b610e6560a0830184610ce5565b979650505050505050565b5f60208284031215610e8557610e84610b67565b5b5f610e9284828501610c88565b91505092915050565b5f82825260208201905092915050565b7f496e76616c696420546f6b656e204164647265737300000000000000000000005f82015250565b5f610edf601583610e9b565b9150610eea82610eab565b602082019050919050565b5f6020820190508181035f830152610f0c81610ed3565b9050919050565b7f496e76616c69642050726f706f73616c204964000000000000000000000000005f82015250565b5f610f47601383610e9b565b9150610f5282610f13565b602082019050919050565b5f6020820190508181035f830152610f7481610f3b565b9050919050565b7f4e487b71000000000000000000000000000000000000000000000000000000005f52603260045260245ffd5b7f566f74696e67204e6f7420416c6c6f776564204e6f77000000000000000000005f82015250565b5f610fdc601683610e9b565b9150610fe782610fa8565b602082019050919050565b5f6020820190508181035f83015261100981610fd0565b9050919050565b5f6040820190506110235f830185610bc9565b6110306020830184610bc9565b9392505050565b7f4f776e61626c653a206e6577206f776e657220697320746865207a65726f20615f8201527f6464726573730000000000000000000000000000000000000000000000000000602082015250565b5f611091602683610e9b565b915061109c82611037565b604082019050919050565b5f6020820190508181035f8301526110be81611085565b9050919050565b7f4e487b71000000000000000000000000000000000000000000000000000000005f52601160045260245ffd5b5f6110fc82610b6b565b915061110783610b6b565b925082820261111581610b6b565b9150828204841483151761112c5761112b6110c5565b5b5092915050565b5f61113d82610b6b565b915061114883610b6b565b92508282019050808211156111605761115f6110c5565b5b92915050565b7f4f776e61626c653a2063616c6c6572206973206e6f7420746865206f776e65725f82015250565b5f61119a602083610e9b565b91506111a582611166565b602082019050919050565b5f6020820190508181035f8301526111c78161118e565b905091905056fea26469706673582212202312945e58cdcdbb5ed1b9646097f0635d9ed809b67b980d09c995e23204489864736f6c63430008140033",
  "immutableReferences": {},
  "source": "// contracts/Voting.sol\r\n//SPDX-License-Identifier: MIT\r\n\r\nimport \"@openzeppelin/contracts/token/ERC20/IERC20.sol\";\r\nimport \"@openzeppelin/contracts/utils/Context.sol\";\r\nimport \"@openzeppelin/contracts/utils/math/SafeMath.sol\";\r\nimport \"@openzeppelin/contracts/access/Ownable.sol\";\r\nimport \"@openzeppelin/contracts/utils/structs/EnumerableSet.sol\";\r\n\r\npragma solidity ^0.8.19;\r\n\r\ncontract Voting is Ownable{\r\n    using SafeMath for uint256;\r\n    using EnumerableSet for EnumerableSet.AddressSet;\r\n\r\n    struct Proposal {\r\n        uint256 id;\r\n        uint256 voteCountYes;\r\n        uint256 voteCountNO;\r\n        uint256 startTime;\r\n        uint256 endTime;\r\n    }\r\n    EnumerableSet.AddressSet private votedUsers;\r\n\r\n    IERC20 public votingToken;\r\n    Proposal[] public proposals;\r\n\r\n    uint256 public candidatesCount;\r\n    \r\n    mapping(address => mapping(uint256 => bool)) public hasVoted;\r\n\r\n    event NewVote(uint256 indexed proposalId, uint256 voteCountYes, uint256 voteCountNo);\r\n\r\n    modifier onlyVotingToken() {\r\n        require(address(votingToken) == 0x0fd466C1b04Ad37502f1eE31392E398B2C01f29E, \"Invalid Token Address\");\r\n        _;\r\n    }\r\n\r\n    modifier hasNotVotedYet() {\r\n        require(!votedUsers.contains(msg.sender), \"Already Voted\");\r\n        _;\r\n    }\r\n\r\n    constructor(address _votingToken) {\r\n        require(_votingToken == 0x0fd466C1b04Ad37502f1eE31392E398B2C01f29E);\r\n        votingToken = IERC20(_votingToken);\r\n    }\r\n\r\n    function createProposals(uint256 _durationInDay) public onlyVotingToken {\r\n        uint256 proposalId = proposals.length; \r\n        uint256 startTime = block.timestamp;\r\n        uint256 endTime = startTime.add(_durationInDay.mul(1 days));\r\n        proposals.push(Proposal (proposalId, startTime, endTime, 0, 0));\r\n    }\r\n\r\n    function getProposal(uint256 _proposalId) public view returns(uint256, uint256, uint256, uint256, uint256, bool){\r\n        Proposal storage proposal = proposals[_proposalId];\r\n        uint256 currentTime = block.timestamp;\r\n        bool isVotingOpen = currentTime >= proposal.startTime && currentTime <= proposal.endTime;\r\n\r\n        return (\r\n            proposal.id,\r\n            proposal.startTime,\r\n            proposal.endTime,\r\n            proposal.voteCountYes,\r\n            proposal.voteCountNO,\r\n            isVotingOpen\r\n        );\r\n    }\r\n\r\n    function vote(uint256 _proposalId, bool _voteYes) external onlyVotingToken {\r\n        require(_proposalId < proposals.length, \"Invalid Proposal Id\");\r\n\r\n        Proposal storage proposal = proposals[_proposalId];\r\n        require(block.timestamp > proposal.startTime && block.timestamp <= proposal.endTime, \"Voting Not Allowed Now\");\r\n\r\n        hasVoted[msg.sender][_proposalId] = true;\r\n\r\n        if(_voteYes) {\r\n            proposal.voteCountYes = proposal.voteCountYes.add(1);\r\n        }\r\n        else {\r\n            proposal.voteCountNO = proposal.voteCountNO.add(1);\r\n        }\r\n\r\n        votedUsers.add(msg.sender);\r\n\r\n        emit NewVote(_proposalId, proposal.voteCountYes, proposal.voteCountNO);\r\n\r\n    } \r\n\r\n    function getProposalId(uint256 _proposalId) external view returns(uint) {\r\n        require(_proposalId < proposals.length, \"Invalid Proposal Id\");\r\n        return(proposals[_proposalId].id);\r\n    }\r\n\r\n    function getVoteCounts(uint256 _proposalId, bool _voteYes) external view returns(uint) {\r\n        require(_proposalId < proposals.length, \"Invalid Proposal Id\");\r\n        Proposal storage proposal = proposals[_proposalId];\r\n        return _voteYes ? proposal.voteCountYes : proposal.voteCountNO;\r\n    }\r\n\r\n    function getProposalCount() external view returns(uint) {\r\n        return proposals.length;\r\n    }\r\n\r\n}",
  "sourcePath": "D:\\sevenDAO\\SecondaryContract\\SecondContracts\\contracts\\Voting.sol",
  "compiler": {
    "name": "solc",
    "version": "0.8.20+commit.a1b79de6.Emscripten.clang"
  },
  "schemaVersion": "3.4.14",
  "updatedAt": "2023-08-05T16:50:48.571Z",
  "devdoc": {
    "kind": "dev",
    "methods": {
      "owner()": {
        "details": "Returns the address of the current owner."
      },
      "renounceOwnership()": {
        "details": "Leaves the contract without owner. It will not be possible to call `onlyOwner` functions. Can only be called by the current owner. NOTE: Renouncing ownership will leave the contract without an owner, thereby disabling any functionality that is only available to the owner."
      },
      "transferOwnership(address)": {
        "details": "Transfers ownership of the contract to a new account (`newOwner`). Can only be called by the current owner."
      }
    },
    "version": 1
  },
  "userdoc": {
    "kind": "user",
    "methods": {},
    "version": 1
  }
}